{
  "_format": "hh-sol-artifact-1",
  "contractName": "DealClient",
  "sourceName": "contracts/DealClient.sol",
  "abi": [
    {
      "inputs": [],
      "stateMutability": "nonpayable",
      "type": "constructor"
    },
    {
      "inputs": [
        {
          "internalType": "int256",
          "name": "errorCode",
          "type": "int256"
        }
      ],
      "name": "ActorError",
      "type": "error"
    },
    {
      "inputs": [],
      "name": "ActorNotFound",
      "type": "error"
    },
    {
      "inputs": [],
      "name": "FailToCallActor",
      "type": "error"
    },
    {
      "inputs": [],
      "name": "InvalidAddress",
      "type": "error"
    },
    {
      "inputs": [
        {
          "internalType": "uint64",
          "name": "",
          "type": "uint64"
        }
      ],
      "name": "InvalidCodec",
      "type": "error"
    },
    {
      "inputs": [],
      "name": "InvalidResponseLength",
      "type": "error"
    },
    {
      "inputs": [],
      "name": "NegativeValueNotAllowed",
      "type": "error"
    },
    {
      "inputs": [
        {
          "internalType": "uint256",
          "name": "balance",
          "type": "uint256"
        },
        {
          "internalType": "uint256",
          "name": "value",
          "type": "uint256"
        }
      ],
      "name": "NotEnoughBalance",
      "type": "error"
    },
    {
      "anonymous": false,
      "inputs": [
        {
          "indexed": true,
          "internalType": "bytes32",
          "name": "id",
          "type": "bytes32"
        },
        {
          "indexed": false,
          "internalType": "uint64",
          "name": "size",
          "type": "uint64"
        },
        {
          "indexed": true,
          "internalType": "bool",
          "name": "verified",
          "type": "bool"
        },
        {
          "indexed": false,
          "internalType": "uint256",
          "name": "price",
          "type": "uint256"
        }
      ],
      "name": "DealProposalCreate",
      "type": "event"
    },
    {
      "anonymous": false,
      "inputs": [
        {
          "indexed": false,
          "internalType": "string",
          "name": "received",
          "type": "string"
        }
      ],
      "name": "ReceivedDataCap",
      "type": "event"
    },
    {
      "inputs": [],
      "name": "AUTHENTICATE_MESSAGE_METHOD_NUM",
      "outputs": [
        {
          "internalType": "uint64",
          "name": "",
          "type": "uint64"
        }
      ],
      "stateMutability": "view",
      "type": "function"
    },
    {
      "inputs": [],
      "name": "DATACAP_ACTOR_ETH_ADDRESS",
      "outputs": [
        {
          "internalType": "address",
          "name": "",
          "type": "address"
        }
      ],
      "stateMutability": "view",
      "type": "function"
    },
    {
      "inputs": [],
      "name": "DATACAP_RECEIVER_HOOK_METHOD_NUM",
      "outputs": [
        {
          "internalType": "uint64",
          "name": "",
          "type": "uint64"
        }
      ],
      "stateMutability": "view",
      "type": "function"
    },
    {
      "inputs": [],
      "name": "MARKET_ACTOR_ETH_ADDRESS",
      "outputs": [
        {
          "internalType": "address",
          "name": "",
          "type": "address"
        }
      ],
      "stateMutability": "view",
      "type": "function"
    },
    {
      "inputs": [],
      "name": "MARKET_NOTIFY_DEAL_METHOD_NUM",
      "outputs": [
        {
          "internalType": "uint64",
          "name": "",
          "type": "uint64"
        }
      ],
      "stateMutability": "view",
      "type": "function"
    },
    {
      "inputs": [
        {
          "internalType": "uint256",
          "name": "value",
          "type": "uint256"
        }
      ],
      "name": "addBalance",
      "outputs": [],
      "stateMutability": "nonpayable",
      "type": "function"
    },
    {
      "inputs": [
        {
          "internalType": "bytes32",
          "name": "",
          "type": "bytes32"
        }
      ],
      "name": "dealRequestIdx",
      "outputs": [
        {
          "internalType": "uint256",
          "name": "idx",
          "type": "uint256"
        },
        {
          "internalType": "bool",
          "name": "valid",
          "type": "bool"
        }
      ],
      "stateMutability": "view",
      "type": "function"
    },
    {
      "inputs": [
        {
          "internalType": "uint256",
          "name": "",
          "type": "uint256"
        }
      ],
      "name": "dealRequests",
      "outputs": [
        {
          "internalType": "bytes",
          "name": "piece_cid",
          "type": "bytes"
        },
        {
          "internalType": "uint64",
          "name": "piece_size",
          "type": "uint64"
        },
        {
          "internalType": "bool",
          "name": "verified_deal",
          "type": "bool"
        },
        {
          "internalType": "string",
          "name": "label",
          "type": "string"
        },
        {
          "internalType": "int64",
          "name": "start_epoch",
          "type": "int64"
        },
        {
          "internalType": "int64",
          "name": "end_epoch",
          "type": "int64"
        },
        {
          "internalType": "uint256",
          "name": "storage_price_per_epoch",
          "type": "uint256"
        },
        {
          "internalType": "uint256",
          "name": "provider_collateral",
          "type": "uint256"
        },
        {
          "internalType": "uint256",
          "name": "client_collateral",
          "type": "uint256"
        },
        {
          "internalType": "uint64",
          "name": "extra_params_version",
          "type": "uint64"
        },
        {
          "components": [
            {
              "internalType": "string",
              "name": "location_ref",
              "type": "string"
            },
            {
              "internalType": "uint64",
              "name": "car_size",
              "type": "uint64"
            },
            {
              "internalType": "bool",
              "name": "skip_ipni_announce",
              "type": "bool"
            },
            {
              "internalType": "bool",
              "name": "remove_unsealed_copy",
              "type": "bool"
            }
          ],
          "internalType": "struct ExtraParamsV1",
          "name": "extra_params",
          "type": "tuple"
        }
      ],
      "stateMutability": "view",
      "type": "function"
    },
    {
      "inputs": [],
      "name": "dealsLength",
      "outputs": [
        {
          "internalType": "uint256",
          "name": "",
          "type": "uint256"
        }
      ],
      "stateMutability": "view",
      "type": "function"
    },
    {
      "inputs": [
        {
          "internalType": "uint256",
          "name": "index",
          "type": "uint256"
        }
      ],
      "name": "getDealByIndex",
      "outputs": [
        {
          "components": [
            {
              "internalType": "bytes",
              "name": "piece_cid",
              "type": "bytes"
            },
            {
              "internalType": "uint64",
              "name": "piece_size",
              "type": "uint64"
            },
            {
              "internalType": "bool",
              "name": "verified_deal",
              "type": "bool"
            },
            {
              "internalType": "string",
              "name": "label",
              "type": "string"
            },
            {
              "internalType": "int64",
              "name": "start_epoch",
              "type": "int64"
            },
            {
              "internalType": "int64",
              "name": "end_epoch",
              "type": "int64"
            },
            {
              "internalType": "uint256",
              "name": "storage_price_per_epoch",
              "type": "uint256"
            },
            {
              "internalType": "uint256",
              "name": "provider_collateral",
              "type": "uint256"
            },
            {
              "internalType": "uint256",
              "name": "client_collateral",
              "type": "uint256"
            },
            {
              "internalType": "uint64",
              "name": "extra_params_version",
              "type": "uint64"
            },
            {
              "components": [
                {
                  "internalType": "string",
                  "name": "location_ref",
                  "type": "string"
                },
                {
                  "internalType": "uint64",
                  "name": "car_size",
                  "type": "uint64"
                },
                {
                  "internalType": "bool",
                  "name": "skip_ipni_announce",
                  "type": "bool"
                },
                {
                  "internalType": "bool",
                  "name": "remove_unsealed_copy",
                  "type": "bool"
                }
              ],
              "internalType": "struct ExtraParamsV1",
              "name": "extra_params",
              "type": "tuple"
            }
          ],
          "internalType": "struct DealRequest",
          "name": "",
          "type": "tuple"
        }
      ],
      "stateMutability": "view",
      "type": "function"
    },
    {
      "inputs": [
        {
          "internalType": "bytes32",
          "name": "proposalId",
          "type": "bytes32"
        }
      ],
      "name": "getDealProposal",
      "outputs": [
        {
          "internalType": "bytes",
          "name": "",
          "type": "bytes"
        }
      ],
      "stateMutability": "view",
      "type": "function"
    },
    {
      "inputs": [
        {
          "internalType": "bytes32",
          "name": "proposalId",
          "type": "bytes32"
        }
      ],
      "name": "getExtraParams",
      "outputs": [
        {
          "internalType": "bytes",
          "name": "extra_params",
          "type": "bytes"
        }
      ],
      "stateMutability": "view",
      "type": "function"
    },
    {
      "inputs": [
        {
          "internalType": "bytes",
          "name": "cid",
          "type": "bytes"
        }
      ],
      "name": "getProposalIdSet",
      "outputs": [
        {
          "components": [
            {
              "internalType": "bytes32",
              "name": "requestId",
              "type": "bytes32"
            },
            {
              "internalType": "bool",
              "name": "valid",
              "type": "bool"
            }
          ],
          "internalType": "struct RequestId",
          "name": "",
          "type": "tuple"
        }
      ],
      "stateMutability": "view",
      "type": "function"
    },
    {
      "inputs": [
        {
          "internalType": "bytes",
          "name": "cid",
          "type": "bytes"
        }
      ],
      "name": "getProviderSet",
      "outputs": [
        {
          "components": [
            {
              "internalType": "bytes",
              "name": "provider",
              "type": "bytes"
            },
            {
              "internalType": "bool",
              "name": "valid",
              "type": "bool"
            }
          ],
          "internalType": "struct ProviderSet",
          "name": "",
          "type": "tuple"
        }
      ],
      "stateMutability": "view",
      "type": "function"
    },
    {
      "inputs": [
        {
          "internalType": "uint64",
          "name": "method",
          "type": "uint64"
        },
        {
          "internalType": "uint64",
          "name": "",
          "type": "uint64"
        },
        {
          "internalType": "bytes",
          "name": "params",
          "type": "bytes"
        }
      ],
      "name": "handle_filecoin_method",
      "outputs": [
        {
          "internalType": "uint32",
          "name": "",
          "type": "uint32"
        },
        {
          "internalType": "uint64",
          "name": "",
          "type": "uint64"
        },
        {
          "internalType": "bytes",
          "name": "",
          "type": "bytes"
        }
      ],
      "stateMutability": "nonpayable",
      "type": "function"
    },
    {
      "inputs": [
        {
          "components": [
            {
              "internalType": "bytes",
              "name": "piece_cid",
              "type": "bytes"
            },
            {
              "internalType": "uint64",
              "name": "piece_size",
              "type": "uint64"
            },
            {
              "internalType": "bool",
              "name": "verified_deal",
              "type": "bool"
            },
            {
              "internalType": "string",
              "name": "label",
              "type": "string"
            },
            {
              "internalType": "int64",
              "name": "start_epoch",
              "type": "int64"
            },
            {
              "internalType": "int64",
              "name": "end_epoch",
              "type": "int64"
            },
            {
              "internalType": "uint256",
              "name": "storage_price_per_epoch",
              "type": "uint256"
            },
            {
              "internalType": "uint256",
              "name": "provider_collateral",
              "type": "uint256"
            },
            {
              "internalType": "uint256",
              "name": "client_collateral",
              "type": "uint256"
            },
            {
              "internalType": "uint64",
              "name": "extra_params_version",
              "type": "uint64"
            },
            {
              "components": [
                {
                  "internalType": "string",
                  "name": "location_ref",
                  "type": "string"
                },
                {
                  "internalType": "uint64",
                  "name": "car_size",
                  "type": "uint64"
                },
                {
                  "internalType": "bool",
                  "name": "skip_ipni_announce",
                  "type": "bool"
                },
                {
                  "internalType": "bool",
                  "name": "remove_unsealed_copy",
                  "type": "bool"
                }
              ],
              "internalType": "struct ExtraParamsV1",
              "name": "extra_params",
              "type": "tuple"
            }
          ],
          "internalType": "struct DealRequest",
          "name": "deal",
          "type": "tuple"
        }
      ],
      "name": "makeDealProposal",
      "outputs": [
        {
          "internalType": "bytes32",
          "name": "",
          "type": "bytes32"
        }
      ],
      "stateMutability": "nonpayable",
      "type": "function"
    },
    {
      "inputs": [],
      "name": "owner",
      "outputs": [
        {
          "internalType": "address",
          "name": "",
          "type": "address"
        }
      ],
      "stateMutability": "view",
      "type": "function"
    },
    {
      "inputs": [
        {
          "internalType": "bytes",
          "name": "",
          "type": "bytes"
        }
      ],
      "name": "pieceDeals",
      "outputs": [
        {
          "internalType": "uint64",
          "name": "",
          "type": "uint64"
        }
      ],
      "stateMutability": "view",
      "type": "function"
    },
    {
      "inputs": [
        {
          "internalType": "bytes",
          "name": "",
          "type": "bytes"
        }
      ],
      "name": "pieceProviders",
      "outputs": [
        {
          "internalType": "bytes",
          "name": "provider",
          "type": "bytes"
        },
        {
          "internalType": "bool",
          "name": "valid",
          "type": "bool"
        }
      ],
      "stateMutability": "view",
      "type": "function"
    },
    {
      "inputs": [
        {
          "internalType": "bytes",
          "name": "",
          "type": "bytes"
        }
      ],
      "name": "pieceRequests",
      "outputs": [
        {
          "internalType": "bytes32",
          "name": "requestId",
          "type": "bytes32"
        },
        {
          "internalType": "bool",
          "name": "valid",
          "type": "bool"
        }
      ],
      "stateMutability": "view",
      "type": "function"
    },
    {
      "inputs": [
        {
          "internalType": "bytes",
          "name": "",
          "type": "bytes"
        }
      ],
      "name": "pieceStatus",
      "outputs": [
        {
          "internalType": "enum DealClient.Status",
          "name": "",
          "type": "uint8"
        }
      ],
      "stateMutability": "view",
      "type": "function"
    },
    {
      "inputs": [
        {
          "internalType": "bytes",
          "name": "pieceCid",
          "type": "bytes"
        }
      ],
      "name": "updateActivationStatus",
      "outputs": [],
      "stateMutability": "nonpayable",
      "type": "function"
    },
    {
      "inputs": [
        {
          "internalType": "address",
          "name": "client",
          "type": "address"
        },
        {
          "internalType": "uint256",
          "name": "value",
          "type": "uint256"
        }
      ],
      "name": "withdrawBalance",
      "outputs": [
        {
          "internalType": "uint256",
          "name": "",
          "type": "uint256"
        }
      ],
      "stateMutability": "nonpayable",
      "type": "function"
    }
  ],
  "bytecode": "0x608060405234801561001057600080fd5b50600680546001600160a01b031916331790556158a780620000336000396000f3fe608060405234801561001057600080fd5b506004361061014c5760003560e01c8063868e10c4116100c3578063be965ce71161007c578063be965ce714610398578063d91921ed146103a6578063dd27fe90146103b9578063f44a8903146103cc578063f4b2e4d8146103ec578063f82704f0146103ff57600080fd5b8063868e10c4146102cb5780638da5cb5b146102ed57806396925ae614610300578063a6d1b7b814610320578063b34ba25214610363578063bad79de91461036e57600080fd5b806329aa3d2a1161011557806329aa3d2a146102115780634634aed51461022c5780634e8a3ca41461024c5780636067f4541461028b578063662637351461029657806378133bb2146102ab57600080fd5b8062706790146101515780630a0e0c91146101725780630cf20cc9146101ae5780631adf7eb1146101ce578063297ab48614610209575b600080fd5b61015c639d8b067881565b6040516101699190613cb6565b60405180910390f35b61015c610180366004613dbc565b600481805160208101820180518482526020830160208501209152546001600160401b031693508492505050565b6101c16101bc366004613e37565b610420565b6040516101699190613e7a565b6101fb6101dc366004613e88565b6000602052806000526040600020805460019091015490915060ff1682565b604051610169929190613eb1565b6001546101c1565b61021f600560ff60981b0181565b6040516101699190613ed5565b61023f61023a366004613e88565b6104b1565b6040516101699190613f3f565b6101fb61025a366004613dbc565b600281805160208101820180518482526020830160208501209152805460019091015490945060ff16925084915050565b61015c63f98c996681565b6102a96102a4366004613dbc565b6104d5565b005b6102be6102b9366004613f9a565b6105c6565b604051610169919061400d565b6102de6102d9366004614038565b6106b6565b604051610169939291906140ae565b60065461021f906001600160a01b031681565b61031361030e366004613e88565b610772565b6040516101699190614221565b61035661032e366004613dbc565b6005818051602081018201805184825260208301602085012091525460ff1693508492505050565b6040516101699190614276565b61015c63de180de381565b61038161037c366004613e88565b610a2c565b6040516101699b9a99989796959493929190614284565b61021f600760ff60981b0181565b6102a96103b4366004613e88565b610c9f565b6101c16103c7366004614350565b610ccb565b6103df6103da366004613f9a565b610f2a565b60405161016991906143ad565b61023f6103fa366004613e88565b610f89565b61041261040d366004613dbc565b611071565b6040516101699291906143bb565b6006546000906001600160a01b0316331461043a57600080fd5b600060405180604001604052806104508661112c565b815260200161045e85611175565b90529050600061046d826111c1565b905060008061047b8361120b565b91509150806104a55760405162461bcd60e51b815260040161049c90614449565b60405180910390fd5b50925050505b92915050565b606060006104be83611289565b90506104ce816101400151611593565b9392505050565b60006004826040516104e79190614481565b9081526020016040518091039020546001600160401b03161161051c5760405162461bcd60e51b815260040161049c906144d1565b600061054e6004836040516105319190614481565b9081526020016040518091039020546001600160401b03166115f0565b90506000816020015160070b13156105a35760046005836040516105729190614481565b9081526020016040518091039020805460ff1916600183600481111561059a5761059a614232565b02179055505050565b6000815160070b13156105c25760036005836040516105729190614481565b5050565b6105e160405160408082019052606081526000602082015290565b600383836040516105f39291906144f4565b908152602001604051809103902060405180604001604052908160008201805461061c90614517565b80601f016020809104026020016040519081016040528092919081815260200182805461064890614517565b80156106955780601f1061066a57610100808354040283529160200191610695565b820191906000526020600020905b81548152906001019060200180831161067857829003601f168201915b50505091835250506001919091015460ff1615156020909101529392505050565b60008060608082639d8b0677196001600160401b03891601610709576106db86611643565b60006106e76001611821565b90506106f4816001611841565b6106fd81611858565b92506051915050610762565b63f98c9965196001600160401b0389160161072c5761072786611885565b610762565b63de180de2196001600160401b0389160161074a5761072786611a3c565b60405162461bcd60e51b815260040161049c9061458c565b6000989097509095509350505050565b61077a613ad9565b6001828154811061078d5761078d61459c565b90600052602060002090600a0201604051806101600160405290816000820180546107b790614517565b80601f01602080910402602001604051908101604052809291908181526020018280546107e390614517565b80156108305780601f1061080557610100808354040283529160200191610830565b820191906000526020600020905b81548152906001019060200180831161081357829003601f168201915b505050918352505060018201546001600160401b0381166020830152600160401b900460ff161515604082015260028201805460609092019161087290614517565b80601f016020809104026020016040519081016040528092919081815260200182805461089e90614517565b80156108eb5780601f106108c0576101008083540402835291602001916108eb565b820191906000526020600020905b8154815290600101906020018083116108ce57829003601f168201915b50505091835250506003820154600781810b6020840152600160401b909104810b6040808401919091526004840154606084015260058401546080840152600684015460a0840152908301546001600160401b031660c083015260e09091019060088301905180608001604052908160008201805461096990614517565b80601f016020809104026020016040519081016040528092919081815260200182805461099590614517565b80156109e25780601f106109b7576101008083540402835291602001916109e2565b820191906000526020600020905b8154815290600101906020018083116109c557829003601f168201915b5050509183525050600191909101546001600160401b038116602083015260ff600160401b8204811615156040840152600160481b90910416151560609091015290525092915050565b60018181548110610a3c57600080fd5b906000526020600020600a9091020180549091508190610a5b90614517565b80601f0160208091040260200160405190810160405280929190818152602001828054610a8790614517565b8015610ad45780601f10610aa957610100808354040283529160200191610ad4565b820191906000526020600020905b815481529060010190602001808311610ab757829003601f168201915b50505050600183015460028401805493946001600160401b03831694600160401b90930460ff16935091610b0790614517565b80601f0160208091040260200160405190810160405280929190818152602001828054610b3390614517565b8015610b805780601f10610b5557610100808354040283529160200191610b80565b820191906000526020600020905b815481529060010190602001808311610b6357829003601f168201915b505050506003830154600484015460058501546006860154600780880154969785820b97600160401b90960490910b95509293919290916001600160401b03169060088101604051806080016040529081600082018054610be090614517565b80601f0160208091040260200160405190810160405280929190818152602001828054610c0c90614517565b8015610c595780601f10610c2e57610100808354040283529160200191610c59565b820191906000526020600020905b815481529060010190602001808311610c3c57829003601f168201915b5050509183525050600191909101546001600160401b038116602083015260ff600160401b8204811615156040840152600160481b90910416151560609091015290508b565b6006546001600160a01b03163314610cb657600080fd5b610cc8610cc23061112c565b82611a9a565b50565b6006546000906001600160a01b03163314610ce557600080fd5b60026005610cf384806145b2565b604051610d019291906144f4565b90815260200160405180910390205460ff166004811115610d2457610d24614232565b1480610d6c575060036005610d3984806145b2565b604051610d479291906144f4565b90815260200160405180910390205460ff166004811115610d6a57610d6a614232565b145b15610d895760405162461bcd60e51b815260040161049c90614656565b6001805480820182556000918252908390829060209020600a90910201610db08282614b59565b50506000423383604051602001610dc993929190614b8b565b60405160208183030381529060405280519060200120905060405160408082018152838252600160208084019190915260008481529081905220815181556020820151600191909101805460ff19169115159190911790555060405160408082019052818152600160208201526002610e4286806145b2565b604051610e509291906144f4565b90815260200160405180910390208151815560208201516001918201805460ff191691151591909117905590506005610e8986806145b2565b604051610e979291906144f4565b9081526020016040518091039020805460ff19166001836004811115610ebf57610ebf614232565b0217905550610ed46060850160408601614bcd565b1515817ffd6419d07e4c269e58d0c63969756c2124155b4a8d6dd08b8cd46e3a9acbf625610f086040880160208901614bee565b8760c00135604051610f1b929190614c0f565b60405180910390a39392505050565b610f44604051604080820190526000808252602082015290565b60028383604051610f569291906144f4565b9081526020016040518091039020604051604081810190528154815260019091015460ff16151560208201529392505050565b60606000610f9683611289565b9050610fa0613b73565b604051602081016040528083519052815260208201516001600160401b03166020820152604082015115156040820152610fd93061112c565b6060820152610fe86000611ae6565b6080820152604051806040016040528083606001518152600160209091015260a0820152608082015160070b60c082015260a082015160070b60e082015261103360c0830151611175565b61010082015261104660e0830151611175565b61012082015261105a610100830151611175565b61014082015261106981611b3e565b949350505050565b60038180516020810182018051848252602083016020850120915280549094508493506110a092509050614517565b80601f01602080910402602001604051908101604052809291908181526020018280546110cc90614517565b80156111195780601f106110ee57610100808354040283529160200191611119565b820191906000526020600020905b8154815290600101906020018083116110fc57829003601f168201915b5050506001909301549192505060ff1682565b611140604051602081016040526060815290565b60405180602001604052808360405160200161115c9190614c2a565b6040516020818303038152906040528152509050919050565b61119060405160408082019052606081526000602082015290565b600061119d836000611d5b565b90506040516040808201905280825181526020018260200151151590529392505050565b6111dc60405160408082019052606081526000602082015290565b60006111e783611dac565b9050600061120060056387ed0a64605185600080611e43565b905061106981611f1f565b600080826020015115611231576040516341820e7560e11b815260040160405180910390fd5b60006112406000196000611d5b565b9050600061125385518660200151611fb3565b905061125f8183611fe5565b1561127257506000946001945092505050565b805161127d90614c54565b95600095509350505050565b611291613ad9565b6000828152602081905260408120604051604080820190528154815260019091015460ff16151560208201908152909150516112df5760405162461bcd60e51b815260040161049c90614cce565b60018151815481106112f3576112f361459c565b90600052602060002090600a02016040518061016001604052908160008201805461131d90614517565b80601f016020809104026020016040519081016040528092919081815260200182805461134990614517565b80156113965780601f1061136b57610100808354040283529160200191611396565b820191906000526020600020905b81548152906001019060200180831161137957829003601f168201915b505050918352505060018201546001600160401b0381166020830152600160401b900460ff16151560408201526002820180546060909201916113d890614517565b80601f016020809104026020016040519081016040528092919081815260200182805461140490614517565b80156114515780601f1061142657610100808354040283529160200191611451565b820191906000526020600020905b81548152906001019060200180831161143457829003601f168201915b50505091835250506003820154600781810b6020840152600160401b909104810b6040808401919091526004840154606084015260058401546080840152600684015460a0840152908301546001600160401b031660c083015260e0909101906008830190518060800160405290816000820180546114cf90614517565b80601f01602080910402602001604051908101604052809291908181526020018280546114fb90614517565b80156115485780601f1061151d57610100808354040283529160200191611548565b820191906000526020600020905b81548152906001019060200180831161152b57829003601f168201915b5050509183525050600191909101546001600160401b038116602083015260ff600160401b8204811615156040840152600160481b9091041615156060909101529052509392505050565b606060006115a16040611821565b90506115ae81600461200f565b6115ba8351829061201b565b6115c983602001518290612039565b6115d883604001518290611841565b6115e783606001518290611841565b6104ce81611858565b61160a604051604080820190526000808252602082015290565b600061161e836001600160401b0316612045565b905060006116386005639904f2ff60518560006001611e43565b90506110698161207d565b33600560ff60981b01146116695760405162461bcd60e51b815260040161049c90614d22565b6000611674826120e7565b905060006116858260200151612149565b90506000815151905060028160405161169e9190614481565b90815260200160405180910390206001015460ff166116cf5760405162461bcd60e51b815260040161049c90614d79565b6003816040516116df9190614481565b90815260200160405180910390206001015460ff16156117115760405162461bcd60e51b815260040161049c90614de3565b600061173a6002836040516117269190614481565b908152602001604051809103902054611289565b90508060400151151583604001511515146117675760405162461bcd60e51b815260040161049c90614e27565b60008061177885610100015161120b565b91509150801561179a5760405162461bcd60e51b815260040161049c90614e9b565b6000806117ab87610140015161120b565b9150915080156117cd5760405162461bcd60e51b815260040161049c90614e9b565b8460c001518411156117f15760405162461bcd60e51b815260040161049c90614ef1565b8461010001518211156118165760405162461bcd60e51b815260040161049c90614f4b565b505050505050505050565b611829613c72565b611834815183612296565b5060006020820152919050565b6105c28282611851576014612313565b6015612313565b606081602001511561187c5760405162461bcd60e51b815260040161049c90614f7e565b81515192915050565b33600560ff60981b01146118ab5760405162461bcd60e51b815260040161049c90614d22565b60006118b682612322565b905060006118c48251612149565b905060028151516040516118d89190614481565b90815260200160405180910390206001015460ff166119095760405162461bcd60e51b815260040161049c90614d79565b600381515160405161191b9190614481565b90815260200160405180910390206001015460ff161561194d5760405162461bcd60e51b815260040161049c90614de3565b604051806040016040528082608001515181526001602090910152600382515160405161197a9190614481565b9081526020016040518091039020815181906119969082614f8e565b506020820151600191909101805460ff191691151591909117905550602082015160048251516040516119c99190614481565b9081526020016040518091039020805467ffffffffffffffff19166001600160401b039290921691909117905560026005825151604051611a0a9190614481565b9081526020016040518091039020805460ff19166001836004811115611a3257611a32614232565b0217905550505050565b33600760ff60981b0114611a625760405162461bcd60e51b815260040161049c906150b0565b7f10aa319ed8cad9bceb033c0c2788c4ae17469ac844e4c6e2c2e20e74ca8a7be8604051611a8f906150e8565b60405180910390a150565b6000611aa58361238e565b90506000611abe6005633105f1a6605185876000611e43565b9050805115611ae057604051630e74990760e01b815260040160405180910390fd5b50505050565b611afa604051602081016040526060815290565b6000611b05836123b7565b905060405160208101604052808251604051602001611b249190615105565b604051602081830303815290604052815250915050919050565b6060600080611b51846101000151612418565b90506000611b63856101200151612418565b90506000611b75866101400151612418565b9050611b81600b612536565b611b8b9085615132565b9350611b98865151612584565b611ba29085615132565b9350611bba86602001516001600160401b0316612536565b611bc49085615132565b9350611bce61259c565b611bd89085615132565b9350611be88660600151516125ad565b611bf29085615132565b9350611c028660800151516125ad565b611c0c9085615132565b9350611c1c8660a00151516125ad565b611c269085615132565b9350611c358660c001516125bb565b611c3f9085615132565b9350611c4e8660e001516125bb565b611c589085615132565b9350611c63836125ad565b611c6d9085615132565b9350611c78826125ad565b611c829085615132565b9350611c8d816125ad565b611c979085615132565b93506000611ca485611821565b9050611cb181600b61200f565b611cbe87515182906125fe565b611ccd87602001518290612039565b611cdc87604001518290611841565b611cec876060015151829061264c565b611cfc876080015151829061264c565b611d0b8760a001518290612659565b611d1a8760c00151829061267a565b611d298760e00151829061267a565b611d33818561264c565b611d3d818461264c565b611d47818361264c565b611d5081611858565b979650505050505050565b611d81604051806060016040528060608152602001600015158152602001600081525090565b6104ce83604051602001611d959190615145565b604051602081830303815290604052836000612684565b6060600080611dbe8460200151612418565b9050611dca6002612536565b611dd49083615132565b9150611de18451516125ad565b611deb9083615132565b9150611df6816125ad565b611e009083615132565b91506000611e0d83611821565b9050611e1a81600261200f565b611e27855151829061264c565b611e31818361264c565b611e3a81611858565b95945050505050565b6060611e566005607f60991b0184612759565b6000806005607f60991b01888686611e6f576000611e72565b60015b8a8a8e604051602001611e8a96959493929190615163565b604051602081830303815290604052604051611ea69190614481565b600060405180830381855af49150503d8060008114611ee1576040513d603f01601f191681016040523d815291503d6000602084013e611ee6565b606091505b509150915081611f0957604051638a7db5bf60e01b815260040160405180910390fd5b611f12816127a1565b9998505050505050505050565b611f3a60405160408082019052606081526000602082015290565b606060008084511115611f6957611f518482612878565b9092509050600082511115611f6957611069826129eb565b60405160408082019052806000604051818152601f19601f8301168101602001604052908015611fa0576020820181803683370190505b5081526000602090910152949350505050565b611fd9604051806060016040528060608152602001600015158152602001600081525090565b6104ce83836000612684565b600080611ff484846001612b51565b905080600114612005576000611069565b6001949350505050565b6105c282600483612c91565b6120288260038351612c98565b61203481835190612db5565b505050565b6105c282600083612c98565b6060600061205b836001600160401b0316612536565b9050600061206882611821565b90506120748185612039565b61106981611858565b612097604051604080820190526000808252602082015290565b6000806120a48482612ddc565b92509050600281146120b8576120b86151b9565b6120c28483612e28565b60079190910b845291506120d68483612e28565b5060070b6020840152509092915050565b612101604051604080820190526060808252602082015290565b60008061210e8482612ddc565b9250905060028114612122576121226151b9565b61212c8483612878565b908452915061213b8483612878565b506020840152509092915050565b612151613b73565b60008060606121608583612ddc565b93509150600b8214612174576121746151b9565b61217e8584612e42565b908552925061218d8584612feb565b6001600160401b03909116602086015292506121a9858461302c565b901515604086015292506121bd8584612878565b935090506121ca81613097565b60608501526121d98584612878565b935090506121e681613097565b60808501526121f585846130e2565b60a086019190915292506122098584612e28565b60079190910b60c086015292506122208584612e28565b60079190910b60e0860152925060606122398685612878565b94509050612246816129eb565b61010086015260606122588786612878565b95509050612265816129eb565b61012087015260606122778887612878565b96509050612284816129eb565b61014088015250949695505050505050565b6122b160405160408082019052606081526000602082015290565b6122bc6020836151e5565b156122e4576122cc6020836151e5565b6122d79060206151f9565b6122e19083615132565b91505b60208301829052604051808452600081528281016020018181101561230857600080fd5b604052509192915050565b61203460e0821783519061323c565b61233d60405160408082019052606081526000602082015290565b60008061234a8482612ddc565b925090506002811461235e5761235e6151b9565b6123688483612878565b90845291506123778483612feb565b506001600160401b03166020840152509092915050565b6060600061239c83516125ad565b905060006123a982611821565b90506120748451829061264c565b6123d260405160408082019052606081526000602082015290565b6701ffffffffffffff600783901c1691607f1660008390036123ff576123f8828261323c565b5050919050565b61240c826080831761323c565b50506123d2565b919050565b6060600082515161242a906001615132565b6001600160401b0381111561244157612441613cc4565b604051818152601f19601f830116810160200160405290801561246b576020820181803683370190505b50905082602001511515600114612483576000612489565b600160f81b5b8160008151811061249c5761249c61459c565b60200101906001600160f81b031916908160001a905350600160005b84515181101561252d57845181815181106124d5576124d561459c565b60200101516001600160f81b0319168383815181106124f6576124f661459c565b60200101906001600160f81b031916908160001a905350816125178161520c565b92505080806125259061520c565b9150506124b8565b50909392505050565b60006017821161254857506001919050565b60ff821161255857506002919050565b61ffff821161256957506003919050565b63ffffffff821161257c57506005919050565b506009919050565b600081516125926002612536565b6104ab9190615132565b60006125a86001612536565b905090565b600081516125928351612536565b600081600781900b82136125db576104ce816001600160401b0316612536565b6104ce6125ea8260001961521f565b6001600160401b0316612536565b50919050565b61260b60d883519061323c565b50612619602a83519061323c565b506105c28160405160200161262e9190615262565b6040516020818303038152906040528361264c90919063ffffffff16565b6120288260028351612c98565b806020015161266e576105c28151839061264c565b6105c28151839061201b565b6105c282826132af565b6126aa604051806060016040528060608152602001600015158152602001600081525090565b602084018451600059601f831615600181146126d857601f84166020908103808601845283010192506126e2565b6020820192508382525b508282848660046101c2fa506020815101810160405280515b60208114612729576000602083015114600181146127195750612729565b60208301925050601f19016126fb565b81528452505050602081018390528115612743578161274d565b61274d81516132dd565b60408201529392505050565b478181101561277f578082604051634787a10360e11b815260040161049c929190615277565b823f151580611ae05760405163064d954b60e41b815260040160405180910390fd5b6060600080806020850185518101906127ba91906152fb565b919450925090506001600160401b0382166127f4578051156127ef57604051630e74990760e01b815260040160405180910390fd5b612857565b6001600160401b0382166051148061281557506001600160401b0382166071145b1561283c5780516000036127ef57604051630e74990760e01b815260040160405180910390fd5b8160405163f1f6bced60e01b815260040161049c9190613cb6565b8215611069578260405163d4bb667160e01b815260040161049c9190613e7a565b60606000806000612889868661331b565b96509092506001600160401b0316905060ff8216600614806128ae575060ff82166002145b6128ca5760405162461bcd60e51b815260040161049c906153a6565b60051960ff831601612903576128e0868661331b565b96509092506001600160401b0316905060ff8216600214612903576129036151b9565b600061290f8287615132565b90506000826001600160401b0381111561292b5761292b613cc4565b604051818152601f19601f8301168101602001604052908015612955576020820181803683370190505b5090506000875b838110156129ce578981815181106129765761297661459c565b60200101516001600160f81b0319168383815181106129975761299761459c565b60200101906001600160f81b031916908160001a905350816129b88161520c565b92505080806129c69061520c565b91505061295c565b50816129da858a615132565b9650965050505050505b9250929050565b612a0660405160408082019052606081526000602082015290565b8151600003612a3e57604051806040016040528060405160408082019052600181526000602080830182905291835291015292915050565b600060018351612a4e91906151f9565b6001600160401b03811115612a6557612a65613cc4565b604051818152601f19601f8301168101602001604052908015612a8f576020820181803683370190505b509050600083600081518110612aa757612aa761459c565b60200101516001600160f81b031916600160f81b03612ac4575060015b60015b8451811015612b3657848181518110612ae257612ae261459c565b60200101516001600160f81b03191683612afd6001846151f9565b81518110612b0d57612b0d61459c565b60200101906001600160f81b031916908160001a90535080612b2e8161520c565b915050612ac7565b50604051604080820190529182521515602082015292915050565b600060018215612bca5784602001518015612b6d575083602001515b15612b7b5750600019612bca565b8460200151158015612b935750836020015115156001145b15612ba25760019150506104ce565b846020015115156001148015612bba57508360200151155b15612bca576000199150506104ce565b836040015185604001511115612be15790506104ce565b846040015184604001511115612c0557612bfd816000196153b6565b9150506104ce565b600080808080895151905060208a510194506020895101935060005b81811015612c805780860151935080850151925082841115612c4c57869750505050505050506104ce565b83831115612c6e57612c60876000196153b6565b9750505050505050506104ce565b612c79602082615132565b9050612c21565b5060009a9950505050505050505050565b6120348383835b6017816001600160401b031611612cbe57611ae060e0600584901b16821784519061323c565b60ff816001600160401b031611612cff57612ce66018611fe0600585901b161784519061323c565b50611ae06001600160401b038216600185519190613498565b61ffff816001600160401b031611612d4157612d286019611fe0600585901b161784519061323c565b50611ae06001600160401b038216600285519190613498565b63ffffffff816001600160401b031611612d8557612d6c601a611fe0600585901b161784519061323c565b50611ae06001600160401b038216600485519190613498565b612d9c601b611fe0600585901b161784519061323c565b50611ae06001600160401b038216600885519190613498565b612dd060405160408082019052606081526000602082015290565b6104ce83838451613527565b600080600080612dec868661331b565b96509092506001600160401b0316905060ff8216600414612e1f5760405162461bcd60e51b815260040161049c90615422565b95939450505050565b60008080612e368585613601565b90969095509350505050565b612e56604051602081016040526060815290565b60008080612e64868661331b565b96509092506001600160401b0316905060ff8216600614612e975760405162461bcd60e51b815260040161049c90615477565b602a8114612eb75760405162461bcd60e51b815260040161049c906154b9565b6060612ec38787612878565b9650905080600081518110612eda57612eda61459c565b60200101516001600160f81b03191615612f065760405162461bcd60e51b815260040161049c90615512565b612f1a604051602081016040526060815290565b60018251612f2891906151f9565b6001600160401b03811115612f3f57612f3f613cc4565b604051818152601f19601f8301168101602001604052908015612f69576020820181803683370190505b50815260015b8251811015612fdf57828181518110612f8a57612f8a61459c565b60200101516001600160f81b0319168251612fa66001846151f9565b81518110612fb657612fb661459c565b60200101906001600160f81b031916908160001a90535080612fd78161520c565b915050612f6f565b50979596505050505050565b600080600080612ffb868661331b565b96509092506001600160401b0316905060ff821615612e1f5760405162461bcd60e51b815260040161049c90615564565b60008060008061303c868661331b565b96509092506001600160401b0316905060ff821660071461306f5760405162461bcd60e51b815260040161049c906155a8565b601581148061307e5750601481145b61308a5761308a6151b9565b6014141595939450505050565b6130ab604051602081016040526060815290565b60006040516020810160405283815290506130c581613650565b6104ab5760405163e6c4247b60e01b815260040160405180910390fd5b6130fd60405160408082019052606081526000602082015290565b600080600061310c868661331b565b96509092506001600160401b0316905060ff821660021480613131575060ff82166003145b61314d5760405162461bcd60e51b815260040161049c9061560a565b60006131598287615132565b90506000826001600160401b0381111561317557613175613cc4565b604051818152601f19601f830116810160200160405290801561319f576020820181803683370190505b5090506000875b83811015613218578981815181106131c0576131c061459c565b60200101516001600160f81b0319168383815181106131e1576131e161459c565b60200101906001600160f81b031916908160001a905350816132028161520c565b92505080806132109061520c565b9150506131a6565b506040516040808201905282815260ff861660031460208201526129da858a615132565b61325760405160408082019052606081526000602082015290565b60008351519050600061326b826001615132565b90508460200151821061328c5761328c8561328783600261561a565b613774565b845160208382010185815381518311156132a4578282525b509495945050505050565b60008160070b126132c6576105c282600083612c98565b6105c28260016132d88460001961521f565b612c98565b60006132e88261378f565b156132f557506000919050565b600060208301519050613307816137d8565b915060086020845103028201915050919050565b60008060008061332b86866139c8565b9050613338600186615132565b94506007600582901c16601f8216601c81106133665760405162461bcd60e51b815260040161049c90615674565b60188160ff1610156133845790945060ff1692508491506134919050565b8060ff166018036133e157600061339b89896139c8565b90506133a8600189615132565b975060188160ff1610156133ce5760405162461bcd60e51b815260040161049c906156a7565b9195505060ff1692508491506134919050565b8060ff1660190361341b5760006133f88989613a16565b9050613405600289615132565b97509195505061ffff1692508491506134919050565b8060ff16601a036134575760006134328989613a57565b905061343f600489615132565b97509195505063ffffffff1692508491506134919050565b8060ff16601b1461346a5761346a6151b9565b60006134768989613a98565b9050613483600889615132565b975091955090935085925050505b9250925092565b6134b360405160408082019052606081526000602082015290565b6000845151905060006134c68285615132565b905085602001518111156134e3576134e38661328783600261561a565b600060016134f3866101006157c5565b6134fd91906151f9565b90508651828101878319825116178152815184111561351a578382525b5096979650505050505050565b61354260405160408082019052606081526000602082015290565b825182111561355057600080fd5b6000845151905060006135638483615132565b90508560200151811115613580576135808661328783600261561a565b6000808751805185602083010193508085111561359b578482525b505050602086015b602086106135db57805182526135ba602083615132565b91506135c7602082615132565b90506135d46020876151f9565b95506135a3565b60001960208790036101000a018019825116818451161790925250959695505050505050565b600080600080613611868661331b565b96509092506001600160401b0316905060ff821660011480613634575060ff8216155b612e1f5760405162461bcd60e51b815260040161049c90615826565b600081516000815181106136665761366661459c565b60200101516001600160f81b03191660000361368957600a825151111592915050565b815160008151811061369d5761369d61459c565b60200101516001600160f81b031916600160f81b14806136e2575081516000815181106136cc576136cc61459c565b60200101516001600160f81b031916600160f91b145b156136f35781515160151492915050565b81516000815181106137075761370761459c565b60200101516001600160f81b031916600360f81b0361372c5781515160311492915050565b81516000815181106137405761374061459c565b60200101516001600160f81b031916600160fa1b03613766576040825151111592915050565b610100825151111592915050565b6000825190506137848383612296565b50611ae08382612db5565b60008060208301815b84518110156137cd578151925082156137b657506000949350505050565b6020918201916137c69082615132565b9050613798565b506001949350505050565b60008115600181146139bf57600160801b600160401b640100000000620100006101006010600460026000198b019081041790810417908104179081041790810417908104179081041790810417600101926040517ff8f9cbfae6cc78fbefe7cdc3a1793dfcf4f0e8bbd8cec470b6a28a7a5a3e1efd81527ff5ecf1b3e9debc68e1d9cfabc5997135bfb7a7a3938b7b606b5b4b3f2f1f0ffe60208201527ff6e4ed9ff2d6b458eadcdf97bd91692de2d4da8fd2d0ac50c6ae9a827252361660408201527fc8c0b887b0a8a4489c948c7f847c6125746c645c544c444038302820181008ff60608201527ff7cae577eec2a03cf3bad76fb589591debb2dd67e0aa9834bea6925f6a4a2e0e60808201527fe39ed557db96902cd38ed14fad815115c786af479b7e8324736353433727170760a08201527fc976c13bb96e881cb166a933a55e490d9d56952b8d4e801485467d236242260660c08201527f753a6d1b65325d0c552a4d1345224105391a310b29122104190a11030902010060e082015261010081016040527e818283848586878898a8b8c8d8e8f929395969799a9b9d9e9faaeb6bedeeff600160f81b8082880204818160ff0385015104600160ff1b861161010002019650600019850185166139b5576001870196505b50505050506125f8565b50600092915050565b60006139d5826001615132565b835110156139f55760405162461bcd60e51b815260040161049c90615861565b828281518110613a0757613a0761459c565b602001015160f81c9392505050565b6000613a23826002615132565b83511015613a435760405162461bcd60e51b815260040161049c90615861565b60008260200184015160f01c949350505050565b6000613a64826004615132565b83511015613a845760405162461bcd60e51b815260040161049c90615861565b60008260200184015160e01c949350505050565b6000613aa5826008615132565b83511015613ac55760405162461bcd60e51b815260040161049c90615861565b60008260200184015160c01c949350505050565b6040518061016001604052806060815260200160006001600160401b0316815260200160001515815260200160608152602001600060070b8152602001600060070b815260200160008152602001600081526020016000815260200160006001600160401b03168152602001613b6e604051608081016040908152606080835260006020840181905291830182905282015290565b905290565b604051806101600160405280613b93604051602081016040526060815290565b815260200160006001600160401b03168152602001600015158152602001613bc5604051602081016040526060815290565b8152602001613bde604051602081016040526060815290565b8152602001613bfe60405160408082019052606081526000602082015290565b8152602001600060070b8152602001600060070b8152602001613c3260405160408082019052606081526000602082015290565b8152602001613c5260405160408082019052606081526000602082015290565b8152602001613b6e60405160408082019052606081526000602082015290565b6040518060400160405280613c9860405160408082019052606081526000602082015290565b8152602001600081525090565b6001600160401b0381165b82525050565b602081016104ab8284613ca5565b634e487b7160e01b600052604160045260246000fd5b601f19601f83011681018181106001600160401b0382111715613cff57613cff613cc4565b6040525050565b6000613d156000604051905090565b90506124138282613cda565b60006001600160401b03821115613d3a57613d3a613cc4565b601f19601f83011660200192915050565b82818337506000910152565b6000613d6a613d6584613d21565b613d06565b905082815260208101848484011115613d8557613d85600080fd5b613d90848285613d4b565b509392505050565b600082601f830112613dac57613dac600080fd5b8135611069848260208601613d57565b600060208284031215613dd157613dd1600080fd5b81356001600160401b03811115613dea57613dea600080fd5b61106984828501613d98565b60006001600160a01b0382166104ab565b613e1081613df6565b8114610cc857600080fd5b80356104ab81613e07565b80613e10565b80356104ab81613e26565b60008060408385031215613e4d57613e4d600080fd5b6000613e598585613e1b565b9250506020613e6a85828601613e2c565b9150509250929050565b80613cb0565b602081016104ab8284613e74565b600060208284031215613e9d57613e9d600080fd5b60006110698484613e2c565b801515613cb0565b60408101613ebf8285613e74565b6104ce6020830184613ea9565b613cb081613df6565b602081016104ab8284613ecc565b60005b83811015613efe578082015183820152602001613ee6565b50506000910152565b6000613f17826000815192915050565b808452602084019350613f2e818560208601613ee3565b601f01601f19169290920192915050565b602080825281016104ce8184613f07565b60008083601f840112613f6557613f65600080fd5b5081356001600160401b03811115613f7f57613f7f600080fd5b6020830191508360018202830111156129e4576129e4600080fd5b60008060208385031215613fb057613fb0600080fd5b82356001600160401b03811115613fc957613fc9600080fd5b613fd585828601613f50565b92509250509250929050565b60006040830182518482038552613ff88282613f07565b9150506020830151613d906020860182613ea9565b602080825281016104ce8184613fe1565b6001600160401b038116613e10565b80356104ab8161401e565b60008060006060848603121561405057614050600080fd5b600061405c868661402d565b935050602061406d8682870161402d565b92505060408401356001600160401b0381111561408c5761408c600080fd5b61409886828701613d98565b9150509250925092565b63ffffffff8116613cb0565b606081016140bc82866140a2565b6140c96020830185613ca5565b8181036040830152611e3a8184613f07565b613cb08160070b90565b600060808301825184820385526140fc8282613f07565b91505060208301516141116020860182613ca5565b5060408301516141246040860182613ea9565b506060830151613d906060860182613ea9565b600061016083018251848203855261414f8282613f07565b91505060208301516141646020860182613ca5565b5060408301516141776040860182613ea9565b506060830151848203606086015261418f8282613f07565b91505060808301516141a460808601826140db565b5060a08301516141b760a08601826140db565b5060c08301516141ca60c0860182613e74565b5060e08301516141dd60e0860182613e74565b506101008301516141f2610100860182613e74565b50610120830151614207610120860182613ca5565b50610140830151848203610140860152611e3a82826140e5565b602080825281016104ce8184614137565b634e487b7160e01b600052602160045260246000fd5b60058110610cc857610cc8614232565b8061241381614248565b60006104ab82614258565b613cb081614262565b602081016104ab828461426d565b6101608082528101614296818e613f07565b90506142a5602083018d613ca5565b6142b2604083018c613ea9565b81810360608301526142c4818b613f07565b90506142d3608083018a6140db565b6142e060a08301896140db565b6142ed60c0830188613e74565b6142fa60e0830187613e74565b614308610100830186613e74565b614316610120830185613ca5565b81810361014083015261432981846140e5565b9d9c50505050505050505050505050565b600061016082840312156125f8576125f8600080fd5b60006020828403121561436557614365600080fd5b81356001600160401b0381111561437e5761437e600080fd5b6110698482850161433a565b60408201815161439a8482613e74565b506020820151611ae06020850182613ea9565b604081016104ab828461438a565b604080825281016143cc8185613f07565b90506104ce6020830184613ea9565b604881526000602082017f50726f626c656d7320636f6e76657274696e672077697468647261772062616c81527f616e636520696e746f2042696720496e742c206d617920636175736520616e206020820152676f766572666c6f7760c01b604082015291505b5060600190565b602080825281016104ab816143db565b6000614469826000815192915050565b614477818560208601613ee3565b9290920192915050565b60006104ce8284614459565b602481526000602082017f6e6f206465616c207075626c697368656420666f7220746869732070696563658152630818da5960e21b602082015291505b5060400190565b602080825281016104ab8161448d565b60006144ee838584613d4b565b50500190565b60006110698284866144e1565b634e487b7160e01b600052602260045260246000fd5b60028104600182168061452b57607f821691505b6020821081036125f8576125f8614501565b603281526000602082017f7468652066696c65636f696e206d6574686f642074686174207761732063616c8152711b1959081a5cc81b9bdd081a185b991b195960721b602082015291506144ca565b602080825281016104ab8161453d565b634e487b7160e01b600052603260045260246000fd5b6000808335601e19368590030181126145cd576145cd600080fd5b8084019250823591506001600160401b038211156145ed576145ed600080fd5b60208301925060018202360383131561460857614608600080fd5b509250929050565b602981526000602082017f6465616c2077697468207468697320706965636543696420616c7265616479208152681c1d589b1a5cda195960ba1b602082015291506144ca565b602080825281016104ab81614610565b60006104ab6146728381565b90565b61467e83614666565b81546008840282811b60001990911b908116901990911617825550505050565b6000612034818484614675565b818110156105c2576146be60008261469e565b6001016146ab565b601f821115612034576146e481600081815281906020902092915050565b6020601f850104810160208510156146f95750805b61470b6020601f8601048301826146ab565b5050505050565b826001600160401b0381111561472a5761472a613cc4565b6147348254614517565b61473f8282856146c6565b6000601f831160018114614773576000841561475b5750858201355b600019600886021c19811660028602178655506147d9565b601f19841661478d86600081815281906020902092915050565b60005b828110156147b05788850135825560209485019460019092019101614790565b868310156147cc57600019601f88166008021c19858a01351682555b6001600288020188555050505b50505050505050565b612034838383614712565b600081356104ab8161401e565b60006001600160401b03835b81169019929092169190911792915050565b60006001600160401b0382166104ab565b61483282614818565b61483d8183546147fa565b8255505050565b801515613e10565b600081356104ab81614844565b600068ff00000000000000006148068460401b90565b60008115156104ab565b6148828261486f565b61483d818354614859565b613e108160070b90565b600081356104ab8161488d565b60006104ab6148b66146728460070b90565b60070b90565b614832826148a4565b60006fffffffffffffffff00000000000000006148068460401b90565b6148eb826148a4565b61483d8183546148c5565b600081356104ab81613e26565b600060001983614806565b61491782614666565b61483d818354614903565b60008235607e193684900301811261493c5761493c600080fd5b9190910192915050565b600069ff0000000000000000006148068460481b90565b6149668261486f565b61483d818354614946565b808261497d81806145b2565b6149888183866147e2565b5050505060018101602083018061499e816147ed565b90506149aa8184614829565b5050506001810160408301806149bf8161484c565b90506149cb8184614879565b5050506001810160608301806149e08161484c565b905061470b818461495d565b6105c28282614971565b8082614a0281806145b2565b614a0d8183866147e2565b50505050600181016020830180614a23816147ed565b9050614a2f8184614829565b505050600181016040830180614a448161484c565b9050614a508184614879565b5050506002810160608301614a6581856145b2565b614a708183866147e2565b50505050600381016080830180614a8681614897565b9050614a9281846148bc565b5050506003810160a0830180614aa781614897565b9050614ab381846148e2565b5050506004810160c0830180614ac8816148f6565b9050614ad4818461490e565b5050506005810160e0830180614ae9816148f6565b9050614af5818461490e565b50505060068101610100830180614b0b816148f6565b9050614b17818461490e565b50505060078101610120830180614b2d816147ed565b9050614b398184614829565b505050600881016101408301614b4f8185614922565b61470b81846149ec565b6105c282826149f6565b60006104ab8260601b90565b60006104ab82614b63565b613cb0614b8682613df6565b614b6f565b6000614b978286613e74565b602082019150614ba78285614b7a565b601482019150614bb78284613e74565b506020019392505050565b80356104ab81614844565b600060208284031215614be257614be2600080fd5b60006110698484614bc2565b600060208284031215614c0357614c03600080fd5b6000611069848461402d565b60408101614c1d8285613ca5565b6104ce6020830184613e74565b61020560f11b81526002016000614c418284614b7a565b50601401919050565b60006104ab825190565b6000614c64826000815192915050565b60208301614c7181614c4a565b925060208210156123f857614c8d600019836020036008021b90565b9092169392505050565b601881526000602082017f70726f706f73616c4964206e6f7420617661696c61626c650000000000000000815291505b5060200190565b602080825281016104ab81614c97565b602781526000602082017f6d73672e73656e646572206e6565647320746f206265206d61726b6574206163815266746f722066303560c81b602082015291506144ca565b602080825281016104ab81614cde565b602a81526000602082017f706965636520636964206d757374206265206164646564206265666f726520618152697574686f72697a696e6760b01b602082015291506144ca565b602080825281016104ab81614d32565b603b81526000602082017f6465616c206661696c656420706f6c69637920636865636b3a2070726f76696481527f657220616c726561647920636c61696d65642074686973206369640000000000602082015291506144ca565b602080825281016104ab81614d89565b601c81526000602082017f76657269666965645f6465616c20706172616d206d69736d617463680000000081529150614cc7565b602080825281016104ab81614df3565b604181526000602082017f49737375657320636f6e76657274696e672075696e7432353620746f2042696781527f496e742c206d6179206e6f7420686176652061636375726174652076616c75656020820152607360f81b60408201529150614442565b602080825281016104ab81614e37565b602981526000602082017f73746f726167652070726963652067726561746572207468616e2072657175658152681cdd08185b5bdd5b9d60ba1b602082015291506144ca565b602080825281016104ab81614eab565b602d81526000602082017f636c69656e7420636f6c6c61746572616c2067726561746572207468616e207281526c195c5d595cdd08185b5bdd5b9d609a1b602082015291506144ca565b602080825281016104ab81614f01565b600c81526000602082016b24b73b30b634b21021a127a960a11b81529150614cc7565b602080825281016104ab81614f5b565b614f9c826000815192915050565b6001600160401b03811115614fb357614fb3613cc4565b614fbd8254614517565b614fc88282856146c6565b6020601f831160018114614ffd5760008415614fe5578287015190505b600019600886021c1981166002860217865550615063565b601f19841661501786600081815281906020902092915050565b60005b8281101561503a578489015182556020948501946001909201910161501a565b868310156150565784890151600019601f89166008021c191682555b6001600288020188555050505b505050505050565b602881526000602082017f6d73672e73656e646572206e6565647320746f2062652064617461636170206181526763746f722066303760c01b602082015291506144ca565b602080825281016104ab8161506b565b6011815260006020820170446174614361702052656365697665642160781b81529150614cc7565b602080825281016104ab816150c0565b60008082525b5060010190565b6000615110826150f8565b91506104ce8284614459565b634e487b7160e01b600052601160045260246000fd5b808201808211156104ab576104ab61511c565b60006151518284613e74565b50602001919050565b613cb081614818565b60c081016151718289613ca5565b61517e6020830188613e74565b61518b6040830187613ca5565b6151986060830186613ca5565b81810360808301526151aa8185613f07565b9050611d5060a083018461515a565b634e487b7160e01b600052600160045260246000fd5b634e487b7160e01b600052601260045260246000fd5b6000826151f4576151f46151cf565b500690565b818103818111156104ab576104ab61511c565b600060001982036150fe576150fe61511c565b600061522b8260070b90565b91506152378360070b90565b925050818103677fffffffffffffff198112677fffffffffffffff821317156104ab576104ab61511c565b60008082526001820191506104ce8284614459565b60408101614c1d8285613e74565b6000815190506104ab81613e26565b6000815190506104ab8161401e565b60006152b1613d6584613d21565b9050828152602081018484840111156152cc576152cc600080fd5b613d90848285613ee3565b600082601f8301126152eb576152eb600080fd5b81516110698482602086016152a3565b60008060006060848603121561531357615313600080fd5b600061531f8686615285565b935050602061533086828701615294565b92505060408401516001600160401b0381111561534f5761534f600080fd5b614098868287016152d7565b602e81526000602082017f696e76616c6964206d616a20286578706563746564204d616a546167206f722081526d4d616a42797465537472696e672960901b602082015291506144ca565b602080825281016104ab8161535b565b8181028060008312600160ff1b851416156153d3576153d361511c565b82820584148315176153e7576153e761511c565b5092915050565b601f81526000602082017f696e76616c6964206d616a20286578706563746564204d616a4172726179290081529150614cc7565b602080825281016104ab816153ee565b602881526000602082017f6578706563746564206d616a6f72207479706520746167207768656e207061728152671cda5b99c818da5960c21b602082015291506144ca565b602080825281016104ab81615432565b60208082527f657870656374656420746167203432207768656e2070617273696e672063696491019081526000614cc7565b602080825281016104ab81615487565b602c81526000602082017f6578706563746564206669727374206279746520746f2062652030207768656e81526b081c185c9cda5b99c818da5960a21b602082015291506144ca565b602080825281016104ab816154c9565b602581526000602082017f696e76616c6964206d616a20286578706563746564204d616a556e7369676e6581526464496e742960d81b602082015291506144ca565b602080825281016104ab81615522565b601f81526000602082017f696e76616c6964206d616a20286578706563746564204d616a4f74686572290081529150614cc7565b602080825281016104ab81615574565b603581526000602082017f696e76616c6964206d616a20286578706563746564204d616a42797465537472815274696e67206f72204d616a54657874537472696e672960581b602082015291506144ca565b602080825281016104ab816155b8565b8181028082158382048514176153e7576153e761511c565b602581526000602082017f63616e6e6f742068616e646c6520686561646572732077697468206578747261815264203e20323760d81b602082015291506144ca565b602080825281016104ab81615632565b600c81526000602082016b34b73b30b634b21031b137b960a11b81529150614cc7565b602080825281016104ab81615684565b80825b60018511156156f6578086048111156156d5576156d561511c565b60018516156156e357908102905b80026156ef8560011c90565b94506156ba565b94509492505050565b60008261570e575060016104ce565b8161571b575060006104ce565b8160018114615731576002811461573b57615768565b60019150506104ce565b60ff84111561574c5761574c61511c565b8360020a9150848211156157625761576261511c565b506104ce565b5060208310610133831016604e8410600b841016171561579b575081810a838111156157965761579661511c565b6104ce565b6157a884848460016156b7565b925090508184048111156157be576157be61511c565b0292915050565b60006104ce60001984846156ff565b603581526000602082017f696e76616c6964206d616a20286578706563746564204d616a5369676e6564498152746e74206f72204d616a556e7369676e6564496e742960581b602082015291506144ca565b602080825281016104ab816157d4565b6014815260006020820173736c6963696e67206f7574206f662072616e676560601b81529150614cc7565b602080825281016104ab8161583656fea2646970667358221220ad78664491050344b2876259b7412a53013cb7bc99a96570056670238a1073da64736f6c63430008110033",
  "linkReferences": {},
  "deployedLinkReferences": {}
}