{
  "_format": "hh-sol-artifact-1",
  "contractName": "Zenith",
  "sourceName": "contracts/Zenith.sol",
  "abi": [
    {
      "anonymous": false,
      "inputs": [
        {
          "indexed": false,
          "internalType": "string",
          "name": "id",
          "type": "string"
        }
      ],
      "name": "ArticlePublished",
      "type": "event"
    },
    {
      "anonymous": false,
      "inputs": [
        {
          "indexed": true,
          "internalType": "address",
          "name": "previousOwner",
          "type": "address"
        },
        {
          "indexed": true,
          "internalType": "address",
          "name": "newOwner",
          "type": "address"
        }
      ],
      "name": "OwnershipTransferred",
      "type": "event"
    },
    {
      "anonymous": false,
      "inputs": [
        {
          "indexed": false,
          "internalType": "address",
          "name": "reviewer",
          "type": "address"
        },
        {
          "indexed": false,
          "internalType": "uint256",
          "name": "rep",
          "type": "uint256"
        }
      ],
      "name": "ReviewerAdded",
      "type": "event"
    },
    {
      "anonymous": false,
      "inputs": [
        {
          "indexed": false,
          "internalType": "address",
          "name": "reviewer",
          "type": "address"
        },
        {
          "indexed": false,
          "internalType": "uint256",
          "name": "oldRep",
          "type": "uint256"
        },
        {
          "indexed": false,
          "internalType": "uint256",
          "name": "newRep",
          "type": "uint256"
        }
      ],
      "name": "ReviewerReputationUpdated",
      "type": "event"
    },
    {
      "inputs": [
        {
          "internalType": "string",
          "name": "_id",
          "type": "string"
        }
      ],
      "name": "addArticle",
      "outputs": [],
      "stateMutability": "nonpayable",
      "type": "function"
    },
    {
      "inputs": [
        {
          "internalType": "address",
          "name": "_reviewer",
          "type": "address"
        }
      ],
      "name": "addReviewer",
      "outputs": [],
      "stateMutability": "nonpayable",
      "type": "function"
    },
    {
      "inputs": [
        {
          "internalType": "address",
          "name": "reviewer",
          "type": "address"
        }
      ],
      "name": "getReviewerReputation",
      "outputs": [
        {
          "internalType": "uint256",
          "name": "",
          "type": "uint256"
        }
      ],
      "stateMutability": "view",
      "type": "function"
    },
    {
      "inputs": [],
      "name": "initialRep",
      "outputs": [
        {
          "internalType": "uint256",
          "name": "",
          "type": "uint256"
        }
      ],
      "stateMutability": "view",
      "type": "function"
    },
    {
      "inputs": [
        {
          "internalType": "string",
          "name": "_id",
          "type": "string"
        }
      ],
      "name": "isArticlePublished",
      "outputs": [
        {
          "internalType": "bool",
          "name": "",
          "type": "bool"
        }
      ],
      "stateMutability": "view",
      "type": "function"
    },
    {
      "inputs": [
        {
          "internalType": "string",
          "name": "",
          "type": "string"
        }
      ],
      "name": "isPublished",
      "outputs": [
        {
          "internalType": "bool",
          "name": "",
          "type": "bool"
        }
      ],
      "stateMutability": "view",
      "type": "function"
    },
    {
      "inputs": [],
      "name": "owner",
      "outputs": [
        {
          "internalType": "address",
          "name": "",
          "type": "address"
        }
      ],
      "stateMutability": "view",
      "type": "function"
    },
    {
      "inputs": [],
      "name": "renounceOwnership",
      "outputs": [],
      "stateMutability": "nonpayable",
      "type": "function"
    },
    {
      "inputs": [
        {
          "internalType": "address",
          "name": "",
          "type": "address"
        }
      ],
      "name": "reputation",
      "outputs": [
        {
          "internalType": "uint256",
          "name": "",
          "type": "uint256"
        }
      ],
      "stateMutability": "view",
      "type": "function"
    },
    {
      "inputs": [
        {
          "internalType": "address",
          "name": "newOwner",
          "type": "address"
        }
      ],
      "name": "transferOwnership",
      "outputs": [],
      "stateMutability": "nonpayable",
      "type": "function"
    },
    {
      "inputs": [
        {
          "internalType": "address",
          "name": "_reviewer",
          "type": "address"
        },
        {
          "internalType": "uint256",
          "name": "newRep",
          "type": "uint256"
        }
      ],
      "name": "updateReviewerReputation",
      "outputs": [],
      "stateMutability": "nonpayable",
      "type": "function"
    }
  ],
  "bytecode": "0x60806040526101f460015534801561001657600080fd5b5061003361002861003860201b60201c565b61004060201b60201c565b610104565b600033905090565b60008060009054906101000a900473ffffffffffffffffffffffffffffffffffffffff169050816000806101000a81548173ffffffffffffffffffffffffffffffffffffffff021916908373ffffffffffffffffffffffffffffffffffffffff1602179055508173ffffffffffffffffffffffffffffffffffffffff168173ffffffffffffffffffffffffffffffffffffffff167f8be0079c531659141344cd1fd0a4f28419497f9722a3daafe3b4186f6b6457e060405160405180910390a35050565b610e5b806101136000396000f3fe608060405234801561001057600080fd5b50600436106100a95760003560e01c80639c023ea1116100715780639c023ea11461013e578063b9f794511461015a578063c7ebd41c1461018a578063c99e5c2c146101ba578063e478c76d146101d8578063f2fde38b14610208576100a9565b80630c971a46146100ae578063715018a6146100ca57806373a82b5f146100d457806377f5177d146100f05780638da5cb5b14610120575b600080fd5b6100c860048036038101906100c391906109f6565b610224565b005b6100d2610311565b005b6100ee60048036038101906100e99190610a9d565b610399565b005b61010a600480360381019061010591906109f6565b610499565b6040516101179190610ae5565b60405180910390f35b6101286104ce565b6040516101359190610b0f565b60405180910390f35b61015860048036038101906101539190610b60565b6104f7565b005b610174600480360381019061016f9190610a9d565b61063b565b6040516101819190610baf565b60405180910390f35b6101a4600480360381019061019f91906109f6565b610653565b6040516101b19190610ae5565b60405180910390f35b6101c2610689565b6040516101cf9190610baf565b60405180910390f35b6101f260048036038101906101ed9190610a9d565b61068f565b6040516101ff9190610baf565b60405180910390f35b610222600480360381019061021d9190610a9d565b6106d8565b005b61022c6107d0565b73ffffffffffffffffffffffffffffffffffffffff1661024a6104ce565b73ffffffffffffffffffffffffffffffffffffffff16146102a0576040517f08c379a000000000000000000000000000000000000000000000000000000000815260040161029790610c27565b60405180910390fd5b60016003826040516102b29190610cc1565b908152602001604051809103902060006101000a81548160ff0219169083151502179055507f8f3789acf1404606423adb83ed1d79a854fa76e2fcb740a8f5e35ebf15b11229816040516103069190610d11565b60405180910390a150565b6103196107d0565b73ffffffffffffffffffffffffffffffffffffffff166103376104ce565b73ffffffffffffffffffffffffffffffffffffffff161461038d576040517f08c379a000000000000000000000000000000000000000000000000000000000815260040161038490610c27565b60405180910390fd5b61039760006107d8565b565b6103a16107d0565b73ffffffffffffffffffffffffffffffffffffffff166103bf6104ce565b73ffffffffffffffffffffffffffffffffffffffff1614610415576040517f08c379a000000000000000000000000000000000000000000000000000000000815260040161040c90610c27565b60405180910390fd5b600154600260008373ffffffffffffffffffffffffffffffffffffffff1673ffffffffffffffffffffffffffffffffffffffff168152602001908152602001600020819055507f792fba7bf3ae9b43c084194769afb90d1ed39f7246c607da236433b394b8137f8160015460405161048e929190610d33565b60405180910390a150565b60006003826040516104ab9190610cc1565b908152602001604051809103902060009054906101000a900460ff169050919050565b60008060009054906101000a900473ffffffffffffffffffffffffffffffffffffffff16905090565b6104ff6107d0565b73ffffffffffffffffffffffffffffffffffffffff1661051d6104ce565b73ffffffffffffffffffffffffffffffffffffffff1614610573576040517f08c379a000000000000000000000000000000000000000000000000000000000815260040161056a90610c27565b60405180910390fd5b6000600260008473ffffffffffffffffffffffffffffffffffffffff1673ffffffffffffffffffffffffffffffffffffffff16815260200190815260200160002054905081600260008573ffffffffffffffffffffffffffffffffffffffff1673ffffffffffffffffffffffffffffffffffffffff168152602001908152602001600020819055507f17d2f6beed389d05e3e0e32a376d4e79ddf382cf86d428f2fda4b36810619b0583828460405161062e93929190610d5c565b60405180910390a1505050565b60026020528060005260406000206000915090505481565b6003818051602081018201805184825260208301602085012081835280955050505050506000915054906101000a900460ff1681565b60015481565b6000600260008373ffffffffffffffffffffffffffffffffffffffff1673ffffffffffffffffffffffffffffffffffffffff168152602001908152602001600020549050919050565b6106e06107d0565b73ffffffffffffffffffffffffffffffffffffffff166106fe6104ce565b73ffffffffffffffffffffffffffffffffffffffff1614610754576040517f08c379a000000000000000000000000000000000000000000000000000000000815260040161074b90610c27565b60405180910390fd5b600073ffffffffffffffffffffffffffffffffffffffff168173ffffffffffffffffffffffffffffffffffffffff1614156107c4576040517f08c379a00000000000000000000000000000000000000000000000000000000081526004016107bb90610e05565b60405180910390fd5b6107cd816107d8565b50565b600033905090565b60008060009054906101000a900473ffffffffffffffffffffffffffffffffffffffff169050816000806101000a81548173ffffffffffffffffffffffffffffffffffffffff021916908373ffffffffffffffffffffffffffffffffffffffff1602179055508173ffffffffffffffffffffffffffffffffffffffff168173ffffffffffffffffffffffffffffffffffffffff167f8be0079c531659141344cd1fd0a4f28419497f9722a3daafe3b4186f6b6457e060405160405180910390a35050565b6000604051905090565b600080fd5b600080fd5b600080fd5b600080fd5b6000601f19601f8301169050919050565b7f4e487b7100000000000000000000000000000000000000000000000000000000600052604160045260246000fd5b610903826108ba565b810181811067ffffffffffffffff82111715610922576109216108cb565b5b80604052505050565b600061093561089c565b905061094182826108fa565b919050565b600067ffffffffffffffff821115610961576109606108cb565b5b61096a826108ba565b9050602081019050919050565b82818337600083830152505050565b600061099961099484610946565b61092b565b9050828152602081018484840111156109b5576109b46108b5565b5b6109c0848285610977565b509392505050565b600082601f8301126109dd576109dc6108b0565b5b81356109ed848260208601610986565b91505092915050565b600060208284031215610a0c57610a0b6108a6565b5b600082013567ffffffffffffffff811115610a2a57610a296108ab565b5b610a36848285016109c8565b91505092915050565b600073ffffffffffffffffffffffffffffffffffffffff82169050919050565b6000610a6a82610a3f565b9050919050565b610a7a81610a5f565b8114610a8557600080fd5b50565b600081359050610a9781610a71565b92915050565b600060208284031215610ab357610ab26108a6565b5b6000610ac184828501610a88565b91505092915050565b60008115159050919050565b610adf81610aca565b82525050565b6000602082019050610afa6000830184610ad6565b92915050565b610b0981610a5f565b82525050565b6000602082019050610b246000830184610b00565b92915050565b6000819050919050565b610b3d81610b2a565b8114610b4857600080fd5b50565b600081359050610b5a81610b34565b92915050565b60008060408385031215610b7757610b766108a6565b5b6000610b8585828601610a88565b9250506020610b9685828601610b4b565b9150509250929050565b610ba981610b2a565b82525050565b6000602082019050610bc46000830184610ba0565b92915050565b600082825260208201905092915050565b7f4f776e61626c653a2063616c6c6572206973206e6f7420746865206f776e6572600082015250565b6000610c11602083610bca565b9150610c1c82610bdb565b602082019050919050565b60006020820190508181036000830152610c4081610c04565b9050919050565b600081519050919050565b600081905092915050565b60005b83811015610c7b578082015181840152602081019050610c60565b83811115610c8a576000848401525b50505050565b6000610c9b82610c47565b610ca58185610c52565b9350610cb5818560208601610c5d565b80840191505092915050565b6000610ccd8284610c90565b915081905092915050565b6000610ce382610c47565b610ced8185610bca565b9350610cfd818560208601610c5d565b610d06816108ba565b840191505092915050565b60006020820190508181036000830152610d2b8184610cd8565b905092915050565b6000604082019050610d486000830185610b00565b610d556020830184610ba0565b9392505050565b6000606082019050610d716000830186610b00565b610d7e6020830185610ba0565b610d8b6040830184610ba0565b949350505050565b7f4f776e61626c653a206e6577206f776e657220697320746865207a65726f206160008201527f6464726573730000000000000000000000000000000000000000000000000000602082015250565b6000610def602683610bca565b9150610dfa82610d93565b604082019050919050565b60006020820190508181036000830152610e1e81610de2565b905091905056fea264697066735822122080929ff0ba76cf0556bf30df87cfb51964e4d0ea537c5f7b77bf9c5b1606e56964736f6c63430008090033",
  "linkReferences": {},
  "deployedLinkReferences": {}
}