{
  "_format": "hh-sol-artifact-1",
  "contractName": "Zenith",
  "sourceName": "contracts/Zenith.sol",
  "abi": [
    {
      "anonymous": false,
      "inputs": [
        {
          "indexed": false,
          "internalType": "string",
          "name": "id",
          "type": "string"
        }
      ],
      "name": "ArticlePublished",
      "type": "event"
    },
    {
      "anonymous": false,
      "inputs": [
        {
          "indexed": true,
          "internalType": "address",
          "name": "previousOwner",
          "type": "address"
        },
        {
          "indexed": true,
          "internalType": "address",
          "name": "newOwner",
          "type": "address"
        }
      ],
      "name": "OwnershipTransferred",
      "type": "event"
    },
    {
      "anonymous": false,
      "inputs": [
        {
          "indexed": false,
          "internalType": "address",
          "name": "reviewer",
          "type": "address"
        },
        {
          "indexed": false,
          "internalType": "uint256",
          "name": "rep",
          "type": "uint256"
        }
      ],
      "name": "ReviewerAdded",
      "type": "event"
    },
    {
      "anonymous": false,
      "inputs": [
        {
          "indexed": false,
          "internalType": "address",
          "name": "reviewer",
          "type": "address"
        },
        {
          "indexed": false,
          "internalType": "uint256",
          "name": "oldRep",
          "type": "uint256"
        },
        {
          "indexed": false,
          "internalType": "uint256",
          "name": "newRep",
          "type": "uint256"
        }
      ],
      "name": "ReviewerReputationUpdated",
      "type": "event"
    },
    {
      "inputs": [
        {
          "internalType": "string",
          "name": "_id",
          "type": "string"
        }
      ],
      "name": "addArticle",
      "outputs": [],
      "stateMutability": "nonpayable",
      "type": "function"
    },
    {
      "inputs": [
        {
          "internalType": "address",
          "name": "_reviewer",
          "type": "address"
        }
      ],
      "name": "addReviewer",
      "outputs": [],
      "stateMutability": "nonpayable",
      "type": "function"
    },
    {
      "inputs": [
        {
          "internalType": "address",
          "name": "reviewer",
          "type": "address"
        }
      ],
      "name": "getReviewerReputation",
      "outputs": [
        {
          "internalType": "uint256",
          "name": "",
          "type": "uint256"
        }
      ],
      "stateMutability": "view",
      "type": "function"
    },
    {
      "inputs": [],
      "name": "initialRep",
      "outputs": [
        {
          "internalType": "uint256",
          "name": "",
          "type": "uint256"
        }
      ],
      "stateMutability": "view",
      "type": "function"
    },
    {
      "inputs": [
        {
          "internalType": "string",
          "name": "_id",
          "type": "string"
        }
      ],
      "name": "isArticlePublished",
      "outputs": [
        {
          "internalType": "bool",
          "name": "",
          "type": "bool"
        }
      ],
      "stateMutability": "view",
      "type": "function"
    },
    {
      "inputs": [
        {
          "internalType": "string",
          "name": "",
          "type": "string"
        }
      ],
      "name": "isPublished",
      "outputs": [
        {
          "internalType": "bool",
          "name": "",
          "type": "bool"
        }
      ],
      "stateMutability": "view",
      "type": "function"
    },
    {
      "inputs": [],
      "name": "owner",
      "outputs": [
        {
          "internalType": "address",
          "name": "",
          "type": "address"
        }
      ],
      "stateMutability": "view",
      "type": "function"
    },
    {
      "inputs": [],
      "name": "renounceOwnership",
      "outputs": [],
      "stateMutability": "nonpayable",
      "type": "function"
    },
    {
      "inputs": [
        {
          "internalType": "address",
          "name": "",
          "type": "address"
        }
      ],
      "name": "reputation",
      "outputs": [
        {
          "internalType": "uint256",
          "name": "",
          "type": "uint256"
        }
      ],
      "stateMutability": "view",
      "type": "function"
    },
    {
      "inputs": [
        {
          "internalType": "address",
          "name": "newOwner",
          "type": "address"
        }
      ],
      "name": "transferOwnership",
      "outputs": [],
      "stateMutability": "nonpayable",
      "type": "function"
    },
    {
      "inputs": [
        {
          "internalType": "address",
          "name": "_reviewer",
          "type": "address"
        },
        {
          "internalType": "uint256",
          "name": "newRep",
          "type": "uint256"
        }
      ],
      "name": "updateReviewerReputation",
      "outputs": [],
      "stateMutability": "nonpayable",
      "type": "function"
    }
  ],
  "bytecode": "0x60806040526101f460015534801561001657600080fd5b5061002033610025565b610075565b600080546001600160a01b038381166001600160a01b0319831681178455604051919092169283917f8be0079c531659141344cd1fd0a4f28419497f9722a3daafe3b4186f6b6457e09190a35050565b6107bc806100846000396000f3fe608060405234801561001057600080fd5b50600436106100a95760003560e01c80639c023ea1116100715780639c023ea114610120578063b9f7945114610133578063c7ebd41c14610160578063c99e5c2c1461018e578063e478c76d14610197578063f2fde38b146101c057600080fd5b80630c971a46146100ae578063715018a6146100c357806373a82b5f146100cb57806377f5177d146100de5780638da5cb5b14610107575b600080fd5b6100c16100bc366004610504565b6101d3565b005b6100c1610246565b6100c16100d9366004610571565b61025a565b6100f16100ec366004610504565b6102b1565b6040516100fe919061059c565b60405180910390f35b6000546001600160a01b03166040516100fe91906105b3565b6100c161012e3660046105d2565b6102dc565b610153610141366004610571565b60026020526000908152604090205481565b6040516100fe9190610615565b6100f161016e366004610504565b805160208183018101805160038252928201919093012091525460ff1681565b61015360015481565b6101536101a5366004610571565b6001600160a01b031660009081526002602052604090205490565b6100c16101ce366004610571565b610344565b6101db610387565b60016003826040516101ed9190610669565b908152604051908190036020018120805492151560ff19909316929092179091557f8f3789acf1404606423adb83ed1d79a854fa76e2fcb740a8f5e35ebf15b112299061023b9083906106ae565b60405180910390a150565b61024e610387565b61025860006103b1565b565b610262610387565b6001546001600160a01b03821660009081526002602052604090819020829055517f792fba7bf3ae9b43c084194769afb90d1ed39f7246c607da236433b394b8137f9161023b918491906106bf565b60006003826040516102c39190610669565b9081526040519081900360200190205460ff1692915050565b6102e4610387565b6001600160a01b0382166000908152600260205260409081902080549083905590517f17d2f6beed389d05e3e0e32a376d4e79ddf382cf86d428f2fda4b36810619b0590610337908590849086906106da565b60405180910390a1505050565b61034c610387565b6001600160a01b03811661037b5760405162461bcd60e51b815260040161037290610702565b60405180910390fd5b610384816103b1565b50565b6000546001600160a01b031633146102585760405162461bcd60e51b81526004016103729061074c565b600080546001600160a01b038381166001600160a01b0319831681178455604051919092169283917f8be0079c531659141344cd1fd0a4f28419497f9722a3daafe3b4186f6b6457e09190a35050565b634e487b7160e01b600052604160045260246000fd5b601f19601f830116810181811067ffffffffffffffff8211171561043d5761043d610401565b6040525050565b600061044f60405190565b905061045b8282610417565b919050565b600067ffffffffffffffff82111561047a5761047a610401565b601f19601f83011660200192915050565b82818337506000910152565b60006104aa6104a584610460565b610444565b9050828152602081018484840111156104c5576104c5600080fd5b6104d084828561048b565b509392505050565b600082601f8301126104ec576104ec600080fd5b81356104fc848260208601610497565b949350505050565b60006020828403121561051957610519600080fd5b813567ffffffffffffffff81111561053357610533600080fd5b6104fc848285016104d8565b60006001600160a01b0382165b92915050565b61055b8161053f565b811461038457600080fd5b803561054c81610552565b60006020828403121561058657610586600080fd5b60006104fc8484610566565b8015155b82525050565b6020810161054c8284610592565b6105968161053f565b6020810161054c82846105aa565b8061055b565b803561054c816105c1565b600080604083850312156105e8576105e8600080fd5b60006105f48585610566565b9250506020610605858286016105c7565b9150509250929050565b80610596565b6020810161054c828461060f565b60005b8381101561063e578181015183820152602001610626565b50506000910152565b6000610651825190565b61065f818560208601610623565b9290920192915050565b60006106758284610647565b9392505050565b6000610686825190565b80845260208401935061069d818560208601610623565b601f01601f19169290920192915050565b60208082528101610675818461067c565b604081016106cd82856105aa565b610675602083018461060f565b606081016106e882866105aa565b6106f5602083018561060f565b6104fc604083018461060f565b6020808252810161054c81602681527f4f776e61626c653a206e6577206f776e657220697320746865207a65726f206160208201526564647265737360d01b604082015260600190565b60208082528181019081527f4f776e61626c653a2063616c6c6572206973206e6f7420746865206f776e657260408301526060820161054c56fea26469706673582212207c3b08cb2057f18561ed997afc1fdcc379e317b1b8ecc96cdf9c23136724e95864736f6c63430008110033",
  "linkReferences": {},
  "deployedLinkReferences": {}
}