{
  "_format": "hh-sol-artifact-1",
  "contractName": "Zenith",
  "sourceName": "contracts/Zenith.sol",
  "abi": [
    {
      "anonymous": false,
      "inputs": [
        {
          "indexed": true,
          "internalType": "address",
          "name": "owner",
          "type": "address"
        },
        {
          "indexed": true,
          "internalType": "address",
          "name": "approved",
          "type": "address"
        },
        {
          "indexed": true,
          "internalType": "uint256",
          "name": "tokenId",
          "type": "uint256"
        }
      ],
      "name": "Approval",
      "type": "event"
    },
    {
      "anonymous": false,
      "inputs": [
        {
          "indexed": true,
          "internalType": "address",
          "name": "owner",
          "type": "address"
        },
        {
          "indexed": true,
          "internalType": "address",
          "name": "operator",
          "type": "address"
        },
        {
          "indexed": false,
          "internalType": "bool",
          "name": "approved",
          "type": "bool"
        }
      ],
      "name": "ApprovalForAll",
      "type": "event"
    },
    {
      "anonymous": false,
      "inputs": [
        {
          "indexed": false,
          "internalType": "string",
          "name": "id",
          "type": "string"
        }
      ],
      "name": "ArticlePublished",
      "type": "event"
    },
    {
      "anonymous": false,
      "inputs": [
        {
          "indexed": true,
          "internalType": "address",
          "name": "previousOwner",
          "type": "address"
        },
        {
          "indexed": true,
          "internalType": "address",
          "name": "newOwner",
          "type": "address"
        }
      ],
      "name": "OwnershipTransferred",
      "type": "event"
    },
    {
      "anonymous": false,
      "inputs": [
        {
          "indexed": false,
          "internalType": "address",
          "name": "reviewer",
          "type": "address"
        },
        {
          "indexed": false,
          "internalType": "uint256",
          "name": "rep",
          "type": "uint256"
        }
      ],
      "name": "ReviewerAdded",
      "type": "event"
    },
    {
      "anonymous": false,
      "inputs": [
        {
          "indexed": false,
          "internalType": "address",
          "name": "reviewer",
          "type": "address"
        },
        {
          "indexed": false,
          "internalType": "uint256",
          "name": "oldRep",
          "type": "uint256"
        },
        {
          "indexed": false,
          "internalType": "uint256",
          "name": "newRep",
          "type": "uint256"
        }
      ],
      "name": "ReviewerReputationUpdated",
      "type": "event"
    },
    {
      "anonymous": false,
      "inputs": [
        {
          "indexed": true,
          "internalType": "address",
          "name": "from",
          "type": "address"
        },
        {
          "indexed": true,
          "internalType": "address",
          "name": "to",
          "type": "address"
        },
        {
          "indexed": true,
          "internalType": "uint256",
          "name": "tokenId",
          "type": "uint256"
        }
      ],
      "name": "Transfer",
      "type": "event"
    },
    {
      "inputs": [
        {
          "internalType": "string",
          "name": "_payloadCID",
          "type": "string"
        },
        {
          "internalType": "address",
          "name": "author",
          "type": "address"
        }
      ],
      "name": "addArticle",
      "outputs": [],
      "stateMutability": "nonpayable",
      "type": "function"
    },
    {
      "inputs": [
        {
          "internalType": "address",
          "name": "_reviewer",
          "type": "address"
        }
      ],
      "name": "addReviewer",
      "outputs": [],
      "stateMutability": "nonpayable",
      "type": "function"
    },
    {
      "inputs": [
        {
          "internalType": "address",
          "name": "to",
          "type": "address"
        },
        {
          "internalType": "uint256",
          "name": "tokenId",
          "type": "uint256"
        }
      ],
      "name": "approve",
      "outputs": [],
      "stateMutability": "nonpayable",
      "type": "function"
    },
    {
      "inputs": [
        {
          "internalType": "address",
          "name": "owner",
          "type": "address"
        }
      ],
      "name": "balanceOf",
      "outputs": [
        {
          "internalType": "uint256",
          "name": "",
          "type": "uint256"
        }
      ],
      "stateMutability": "view",
      "type": "function"
    },
    {
      "inputs": [],
      "name": "downStep",
      "outputs": [
        {
          "internalType": "uint256",
          "name": "",
          "type": "uint256"
        }
      ],
      "stateMutability": "view",
      "type": "function"
    },
    {
      "inputs": [
        {
          "internalType": "uint256",
          "name": "tokenId",
          "type": "uint256"
        }
      ],
      "name": "getApproved",
      "outputs": [
        {
          "internalType": "address",
          "name": "",
          "type": "address"
        }
      ],
      "stateMutability": "view",
      "type": "function"
    },
    {
      "inputs": [
        {
          "internalType": "uint256",
          "name": "_tokenID",
          "type": "uint256"
        }
      ],
      "name": "getPayloadCID",
      "outputs": [
        {
          "internalType": "string",
          "name": "",
          "type": "string"
        }
      ],
      "stateMutability": "view",
      "type": "function"
    },
    {
      "inputs": [
        {
          "internalType": "address",
          "name": "reviewer",
          "type": "address"
        }
      ],
      "name": "getReviewerReputation",
      "outputs": [
        {
          "internalType": "uint256",
          "name": "",
          "type": "uint256"
        }
      ],
      "stateMutability": "view",
      "type": "function"
    },
    {
      "inputs": [],
      "name": "initialRep",
      "outputs": [
        {
          "internalType": "uint256",
          "name": "",
          "type": "uint256"
        }
      ],
      "stateMutability": "view",
      "type": "function"
    },
    {
      "inputs": [
        {
          "internalType": "address",
          "name": "owner",
          "type": "address"
        },
        {
          "internalType": "address",
          "name": "operator",
          "type": "address"
        }
      ],
      "name": "isApprovedForAll",
      "outputs": [
        {
          "internalType": "bool",
          "name": "",
          "type": "bool"
        }
      ],
      "stateMutability": "view",
      "type": "function"
    },
    {
      "inputs": [],
      "name": "maxRep",
      "outputs": [
        {
          "internalType": "uint256",
          "name": "",
          "type": "uint256"
        }
      ],
      "stateMutability": "view",
      "type": "function"
    },
    {
      "inputs": [],
      "name": "minRep",
      "outputs": [
        {
          "internalType": "uint256",
          "name": "",
          "type": "uint256"
        }
      ],
      "stateMutability": "view",
      "type": "function"
    },
    {
      "inputs": [],
      "name": "name",
      "outputs": [
        {
          "internalType": "string",
          "name": "",
          "type": "string"
        }
      ],
      "stateMutability": "view",
      "type": "function"
    },
    {
      "inputs": [],
      "name": "owner",
      "outputs": [
        {
          "internalType": "address",
          "name": "",
          "type": "address"
        }
      ],
      "stateMutability": "view",
      "type": "function"
    },
    {
      "inputs": [
        {
          "internalType": "uint256",
          "name": "tokenId",
          "type": "uint256"
        }
      ],
      "name": "ownerOf",
      "outputs": [
        {
          "internalType": "address",
          "name": "",
          "type": "address"
        }
      ],
      "stateMutability": "view",
      "type": "function"
    },
    {
      "inputs": [
        {
          "internalType": "uint256",
          "name": "",
          "type": "uint256"
        }
      ],
      "name": "payloadCID",
      "outputs": [
        {
          "internalType": "string",
          "name": "",
          "type": "string"
        }
      ],
      "stateMutability": "view",
      "type": "function"
    },
    {
      "inputs": [],
      "name": "renounceOwnership",
      "outputs": [],
      "stateMutability": "nonpayable",
      "type": "function"
    },
    {
      "inputs": [
        {
          "internalType": "address",
          "name": "",
          "type": "address"
        }
      ],
      "name": "reputation",
      "outputs": [
        {
          "internalType": "uint256",
          "name": "",
          "type": "uint256"
        }
      ],
      "stateMutability": "view",
      "type": "function"
    },
    {
      "inputs": [
        {
          "internalType": "address",
          "name": "from",
          "type": "address"
        },
        {
          "internalType": "address",
          "name": "to",
          "type": "address"
        },
        {
          "internalType": "uint256",
          "name": "tokenId",
          "type": "uint256"
        }
      ],
      "name": "safeTransferFrom",
      "outputs": [],
      "stateMutability": "nonpayable",
      "type": "function"
    },
    {
      "inputs": [
        {
          "internalType": "address",
          "name": "from",
          "type": "address"
        },
        {
          "internalType": "address",
          "name": "to",
          "type": "address"
        },
        {
          "internalType": "uint256",
          "name": "tokenId",
          "type": "uint256"
        },
        {
          "internalType": "bytes",
          "name": "data",
          "type": "bytes"
        }
      ],
      "name": "safeTransferFrom",
      "outputs": [],
      "stateMutability": "nonpayable",
      "type": "function"
    },
    {
      "inputs": [
        {
          "internalType": "address",
          "name": "operator",
          "type": "address"
        },
        {
          "internalType": "bool",
          "name": "approved",
          "type": "bool"
        }
      ],
      "name": "setApprovalForAll",
      "outputs": [],
      "stateMutability": "nonpayable",
      "type": "function"
    },
    {
      "inputs": [
        {
          "internalType": "bytes4",
          "name": "interfaceId",
          "type": "bytes4"
        }
      ],
      "name": "supportsInterface",
      "outputs": [
        {
          "internalType": "bool",
          "name": "",
          "type": "bool"
        }
      ],
      "stateMutability": "view",
      "type": "function"
    },
    {
      "inputs": [],
      "name": "symbol",
      "outputs": [
        {
          "internalType": "string",
          "name": "",
          "type": "string"
        }
      ],
      "stateMutability": "view",
      "type": "function"
    },
    {
      "inputs": [
        {
          "internalType": "uint256",
          "name": "tokenId",
          "type": "uint256"
        }
      ],
      "name": "tokenURI",
      "outputs": [
        {
          "internalType": "string",
          "name": "",
          "type": "string"
        }
      ],
      "stateMutability": "view",
      "type": "function"
    },
    {
      "inputs": [
        {
          "internalType": "address",
          "name": "from",
          "type": "address"
        },
        {
          "internalType": "address",
          "name": "to",
          "type": "address"
        },
        {
          "internalType": "uint256",
          "name": "tokenId",
          "type": "uint256"
        }
      ],
      "name": "transferFrom",
      "outputs": [],
      "stateMutability": "nonpayable",
      "type": "function"
    },
    {
      "inputs": [
        {
          "internalType": "address",
          "name": "newOwner",
          "type": "address"
        }
      ],
      "name": "transferOwnership",
      "outputs": [],
      "stateMutability": "nonpayable",
      "type": "function"
    },
    {
      "inputs": [],
      "name": "upStep",
      "outputs": [
        {
          "internalType": "uint256",
          "name": "",
          "type": "uint256"
        }
      ],
      "stateMutability": "view",
      "type": "function"
    },
    {
      "inputs": [
        {
          "internalType": "address",
          "name": "_reviewer",
          "type": "address"
        },
        {
          "internalType": "bool",
          "name": "action",
          "type": "bool"
        }
      ],
      "name": "updateReviewerReputation",
      "outputs": [],
      "stateMutability": "nonpayable",
      "type": "function"
    }
  ],
  "bytecode": "0x60806040526101f4600755600a60085560056009556103e8600a556001600b553480156200002c57600080fd5b50604051806040016040528060068152602001650b4cadcd2e8d60d31b815250604051806040016040528060038152602001622d32b760e91b815250620000826200007c620000a860201b60201c565b620000ac565b600162000090838262000215565b5060026200009f828262000215565b505050620002e5565b3390565b600080546001600160a01b038381166001600160a01b0319831681178455604051919092169283917f8be0079c531659141344cd1fd0a4f28419497f9722a3daafe3b4186f6b6457e09190a35050565b634e487b7160e01b600052604160045260246000fd5b634e487b7160e01b600052602260045260246000fd5b6002810460018216806200013d57607f821691505b60208210810362000152576200015262000112565b50919050565b600062000169620001668381565b90565b92915050565b6200017a8362000158565b81546008840282811b60001990911b908116901990911617825550505050565b6000620001a98184846200016f565b505050565b81811015620001cd57620001c46000826200019a565b600101620001ae565b5050565b601f821115620001a9576000818152602090206020601f85010481016020851015620001fa5750805b6200020e6020601f860104830182620001ae565b5050505050565b81516001600160401b03811115620002315762000231620000fc565b6200023d825462000128565b6200024a828285620001d1565b6020601f831160018114620002815760008415620002685750858201515b600019600886021c1981166002860217865550620002dd565b600085815260208120601f198616915b82811015620002b3578885015182556020948501946001909201910162000291565b86831015620002d05784890151600019601f89166008021c191682555b6001600288020188555050505b505050505050565b611cd480620002f56000396000f3fe608060405234801561001057600080fd5b50600436106101c45760003560e01c806395d89b41116100f9578063c87b56dd11610097578063d832764711610071578063d832764714610392578063e478c76d1461039b578063e985e9c5146103c4578063f2fde38b146103d757600080fd5b8063c87b56dd14610363578063c99e5c2c14610376578063d5942a9a1461037f57600080fd5b8063b88d4fde116100d3578063b88d4fde1461030a578063b929a12b1461031d578063b9f7945114610330578063c355c3b41461035057600080fd5b806395d89b41146102dc578063a22cb465146102e4578063a331792b146102f757600080fd5b80636352211e1161016657806373a82b5f1161014057806373a82b5f146102a6578063822e12c8146102b957806382a6587a146102c25780638da5cb5b146102cb57600080fd5b80636352211e1461027857806370a082311461028b578063715018a61461029e57600080fd5b8063095ea7b3116101a2578063095ea7b31461022757806323b872dd1461023c57806342842e0e1461024f57806363039be81461026257600080fd5b806301ffc9a7146101c957806306fdde03146101f2578063081812fc14610207575b600080fd5b6101dc6101d73660046111c5565b6103ea565b6040516101e991906111f0565b60405180910390f35b6101fa61043c565b6040516101e99190611254565b61021a610215366004611276565b6104ce565b6040516101e991906112b1565b61023a6102353660046112d3565b6104f5565b005b61023a61024a366004611310565b610583565b61023a61025d366004611310565b6105b4565b61026b600a5481565b6040516101e99190611366565b61021a610286366004611276565b6105cf565b61026b610299366004611374565b610604565b61023a610648565b61023a6102b4366004611374565b61065c565b61026b60095481565b61026b600b5481565b6000546001600160a01b031661021a565b6101fa6106be565b61023a6102f23660046113a8565b6106cd565b61023a6103053660046114ce565b6106dc565b61023a61031836600461151b565b61075f565b61023a61032b3660046113a8565b610797565b61026b61033e366004611374565b600d6020526000908152604090205481565b6101fa61035e366004611276565b6108ab565b6101fa610371366004611276565b61094d565b61026b60075481565b6101fa61038d366004611276565b6109c1565b61026b60085481565b61026b6103a9366004611374565b6001600160a01b03166000908152600d602052604090205490565b6101dc6103d236600461159a565b610a5b565b61023a6103e5366004611374565b610a89565b60006001600160e01b031982166380ac58cd60e01b148061041b57506001600160e01b03198216635b5e139f60e01b145b8061043657506301ffc9a760e01b6001600160e01b03198316145b92915050565b60606001805461044b906115d2565b80601f0160208091040260200160405190810160405280929190818152602001828054610477906115d2565b80156104c45780601f10610499576101008083540402835291602001916104c4565b820191906000526020600020905b8154815290600101906020018083116104a757829003601f168201915b5050505050905090565b60006104d982610ac3565b506000908152600560205260409020546001600160a01b031690565b6000610500826105cf565b9050806001600160a01b0316836001600160a01b03160361053c5760405162461bcd60e51b81526004016105339061163f565b60405180910390fd5b336001600160a01b038216148061055857506105588133610a5b565b6105745760405162461bcd60e51b8152600401610533906116a9565b61057e8383610af7565b505050565b61058d3382610b65565b6105a95760405162461bcd60e51b815260040161053390611703565b61057e838383610bc4565b61057e8383836040518060200160405280600081525061075f565b6000818152600360205260408120546001600160a01b0316806104365760405162461bcd60e51b81526004016105339061174a565b60006001600160a01b03821661062c5760405162461bcd60e51b8152600401610533906117a0565b506001600160a01b031660009081526004602052604090205490565b610650610cec565b61065a6000610d16565b565b610664610cec565b6007546001600160a01b0382166000908152600d602052604090819020829055517f792fba7bf3ae9b43c084194769afb90d1ed39f7246c607da236433b394b8137f916106b3918491906117b0565b60405180910390a150565b60606002805461044b906115d2565b6106d8338383610d66565b5050565b6106e4610cec565b6106f2600c80546001019055565b60006106fd600c5490565b6000818152600e60205260409020909150610718848261186b565b506107238282610e08565b7f8f3789acf1404606423adb83ed1d79a854fa76e2fcb740a8f5e35ebf15b11229836040516107529190611254565b60405180910390a1505050565b6107693383610b65565b6107855760405162461bcd60e51b815260040161053390611703565b61079184848484610f03565b50505050565b61079f610cec565b6001600160a01b0382166000908152600d60205260409020548115610811576008546107cb9082611945565b6001600160a01b0384166000908152600d60205260409020819055600a54101561080c57600a546001600160a01b0384166000908152600d60205260409020555b61085f565b60095461081e9082611958565b6001600160a01b0384166000908152600d60205260409020819055600b54111561085f57600b546001600160a01b0384166000908152600d60205260409020555b6001600160a01b0383166000908152600d6020526040908190205490517f17d2f6beed389d05e3e0e32a376d4e79ddf382cf86d428f2fda4b36810619b0591610752918691859161196b565b6000818152600e602052604090208054606091906108c8906115d2565b80601f01602080910402602001604051908101604052809291908181526020018280546108f4906115d2565b80156109415780601f1061091657610100808354040283529160200191610941565b820191906000526020600020905b81548152906001019060200180831161092457829003601f168201915b50505050509050919050565b606061095882610ac3565b600061096f60408051602081019091526000815290565b9050600081511161098f57604051806020016040528060008152506109ba565b8061099984610f36565b6040516020016109aa9291906119b5565b6040516020818303038152906040525b9392505050565b600e60205260009081526040902080546109da906115d2565b80601f0160208091040260200160405190810160405280929190818152602001828054610a06906115d2565b8015610a535780601f10610a2857610100808354040283529160200191610a53565b820191906000526020600020905b815481529060010190602001808311610a3657829003601f168201915b505050505081565b6001600160a01b03918216600090815260066020908152604080832093909416825291909152205460ff1690565b610a91610cec565b6001600160a01b038116610ab75760405162461bcd60e51b815260040161053390611a10565b610ac081610d16565b50565b6000818152600360205260409020546001600160a01b0316610ac05760405162461bcd60e51b81526004016105339061174a565b600081815260056020526040902080546001600160a01b0319166001600160a01b0384169081179091558190610b2c826105cf565b6001600160a01b03167f8c5be1e5ebec7d5bd14f71427d1e84f3dd0314c0f7b2291e5b200ac8c7c3b92560405160405180910390a45050565b600080610b71836105cf565b9050806001600160a01b0316846001600160a01b03161480610b985750610b988185610a5b565b80610bbc5750836001600160a01b0316610bb1846104ce565b6001600160a01b0316145b949350505050565b826001600160a01b0316610bd7826105cf565b6001600160a01b031614610bfd5760405162461bcd60e51b815260040161053390611a62565b6001600160a01b038216610c235760405162461bcd60e51b815260040161053390611ab3565b826001600160a01b0316610c36826105cf565b6001600160a01b031614610c5c5760405162461bcd60e51b815260040161053390611a62565b600081815260056020908152604080832080546001600160a01b03199081169091556001600160a01b0387811680865260048552838620805460001901905590871680865283862080546001019055868652600390945282852080549092168417909155905184937fddf252ad1be2c89b69c2b068fc378daa952ba7f163c4a11628f55a4df523b3ef91a4505050565b6000546001600160a01b0316331461065a5760405162461bcd60e51b815260040161053390611af5565b600080546001600160a01b038381166001600160a01b0319831681178455604051919092169283917f8be0079c531659141344cd1fd0a4f28419497f9722a3daafe3b4186f6b6457e09190a35050565b816001600160a01b0316836001600160a01b031603610d975760405162461bcd60e51b815260040161053390611b39565b6001600160a01b0383811660008181526006602090815260408083209487168084529490915290819020805460ff1916851515179055517f17307eab39ab6107e8899845ad3d59bd9653f200f220920489ca2b5937696c3190610dfb9085906111f0565b60405180910390a3505050565b6001600160a01b038216610e2e5760405162461bcd60e51b815260040161053390611b7b565b6000818152600360205260409020546001600160a01b031615610e635760405162461bcd60e51b815260040161053390611bbf565b6000818152600360205260409020546001600160a01b031615610e985760405162461bcd60e51b815260040161053390611bbf565b6001600160a01b038216600081815260046020908152604080832080546001019055848352600390915280822080546001600160a01b0319168417905551839291907fddf252ad1be2c89b69c2b068fc378daa952ba7f163c4a11628f55a4df523b3ef908290a45050565b610f0e848484610bc4565b610f1a84848484610fca565b6107915760405162461bcd60e51b815260040161053390611c1e565b60606000610f43836110cb565b600101905060008167ffffffffffffffff811115610f6357610f636113db565b6040519080825280601f01601f191660200182016040528015610f8d576020820181803683370190505b5090508181016020015b600019016f181899199a1a9b1b9c1cb0b131b232b360811b600a86061a8153600a8504945084610f97575b509392505050565b60006001600160a01b0384163b156110c057604051630a85bd0160e11b81526001600160a01b0385169063150b7a029061100e903390899088908890600401611c2e565b6020604051808303816000875af1925050508015611049575060408051601f3d908101601f1916820190925261104691810190611c7d565b60015b6110a6573d808015611077576040519150601f19603f3d011682016040523d82523d6000602084013e61107c565b606091505b50805160000361109e5760405162461bcd60e51b815260040161053390611c1e565b805181602001fd5b6001600160e01b031916630a85bd0160e11b149050610bbc565b506001949350505050565b60008072184f03e93ff9f4daa797ed6e38ed64bf6a1f0160401b831061110a5772184f03e93ff9f4daa797ed6e38ed64bf6a1f0160401b830492506040015b6d04ee2d6d415b85acef81000000008310611136576d04ee2d6d415b85acef8100000000830492506020015b662386f26fc10000831061115457662386f26fc10000830492506010015b6305f5e100831061116c576305f5e100830492506008015b612710831061118057612710830492506004015b60648310611192576064830492506002015b600a83106104365760010192915050565b6001600160e01b031981165b8114610ac057600080fd5b8035610436816111a3565b6000602082840312156111da576111da600080fd5b6000610bbc84846111ba565b8015155b82525050565b6020810161043682846111e6565b60005b83811015611219578181015183820152602001611201565b50506000910152565b600061122c825190565b8084526020840193506112438185602086016111fe565b601f01601f19169290920192915050565b602080825281016109ba8184611222565b806111af565b803561043681611265565b60006020828403121561128b5761128b600080fd5b6000610bbc848461126b565b60006001600160a01b038216610436565b6111ea81611297565b6020810161043682846112a8565b6111af81611297565b8035610436816112bf565b600080604083850312156112e9576112e9600080fd5b60006112f585856112c8565b92505060206113068582860161126b565b9150509250929050565b60008060006060848603121561132857611328600080fd5b600061133486866112c8565b9350506020611345868287016112c8565b92505060406113568682870161126b565b9150509250925092565b806111ea565b602081016104368284611360565b60006020828403121561138957611389600080fd5b6000610bbc84846112c8565b8015156111af565b803561043681611395565b600080604083850312156113be576113be600080fd5b60006113ca85856112c8565b92505060206113068582860161139d565b634e487b7160e01b600052604160045260246000fd5b601f19601f830116810181811067ffffffffffffffff82111715611417576114176113db565b6040525050565b600061142960405190565b905061143582826113f1565b919050565b600067ffffffffffffffff821115611454576114546113db565b601f19601f83011660200192915050565b82818337506000910152565b600061148461147f8461143a565b61141e565b90508281526020810184848401111561149f5761149f600080fd5b610fc2848285611465565b600082601f8301126114be576114be600080fd5b8135610bbc848260208601611471565b600080604083850312156114e4576114e4600080fd5b823567ffffffffffffffff8111156114fe576114fe600080fd5b61150a858286016114aa565b9250506020611306858286016112c8565b6000806000806080858703121561153457611534600080fd5b600061154087876112c8565b9450506020611551878288016112c8565b93505060406115628782880161126b565b925050606085013567ffffffffffffffff81111561158257611582600080fd5b61158e878288016114aa565b91505092959194509250565b600080604083850312156115b0576115b0600080fd5b600061150a85856112c8565b634e487b7160e01b600052602260045260246000fd5b6002810460018216806115e657607f821691505b6020821081036115f8576115f86115bc565b50919050565b602181526000602082017f4552433732313a20617070726f76616c20746f2063757272656e74206f776e658152603960f91b602082015291505b5060400190565b60208082528101610436816115fe565b603d81526000602082017f4552433732313a20617070726f76652063616c6c6572206973206e6f7420746f81527f6b656e206f776e6572206f7220617070726f76656420666f7220616c6c00000060208201529150611638565b602080825281016104368161164f565b602d81526000602082017f4552433732313a2063616c6c6572206973206e6f7420746f6b656e206f776e6581526c1c881bdc88185c1c1c9bdd9959609a1b60208201529150611638565b60208082528101610436816116b9565b601881526000602082017f4552433732313a20696e76616c696420746f6b656e2049440000000000000000815291505b5060200190565b6020808252810161043681611713565b602981526000602082017f4552433732313a2061646472657373207a65726f206973206e6f7420612076618152683634b21037bbb732b960b91b60208201529150611638565b602080825281016104368161175a565b604081016117be82856112a8565b6109ba6020830184611360565b60006104366117d78381565b90565b6117e3836117cb565b81546008840282811b60001990911b908116901990911617825550505050565b600061057e8184846117da565b818110156106d857611823600082611803565b600101611810565b601f82111561057e576000818152602090206020601f850104810160208510156118525750805b6118646020601f860104830182611810565b5050505050565b815167ffffffffffffffff811115611885576118856113db565b61188f82546115d2565b61189a82828561182b565b6020601f8311600181146118ce57600084156118b65750858201515b600019600886021c1981166002860217865550611927565b600085815260208120601f198616915b828110156118fe57888501518255602094850194600190920191016118de565b8683101561191a5784890151600019601f89166008021c191682555b6001600288020188555050505b505050505050565b634e487b7160e01b600052601160045260246000fd5b808201808211156104365761043661192f565b818103818111156104365761043661192f565b6060810161197982866112a8565b6119866020830185611360565b610bbc6040830184611360565b600061199d825190565b6119ab8185602086016111fe565b9290920192915050565b60006119c18285611993565b9150610bbc8284611993565b602681526000602082017f4f776e61626c653a206e6577206f776e657220697320746865207a65726f206181526564647265737360d01b60208201529150611638565b60208082528101610436816119cd565b602581526000602082017f4552433732313a207472616e736665722066726f6d20696e636f72726563742081526437bbb732b960d91b60208201529150611638565b6020808252810161043681611a20565b602481526000602082017f4552433732313a207472616e7366657220746f20746865207a65726f206164648152637265737360e01b60208201529150611638565b6020808252810161043681611a72565b60208082527f4f776e61626c653a2063616c6c6572206973206e6f7420746865206f776e657291019081526000611743565b6020808252810161043681611ac3565b601981526000602082017f4552433732313a20617070726f766520746f2063616c6c65720000000000000081529150611743565b6020808252810161043681611b05565b60208082527f4552433732313a206d696e7420746f20746865207a65726f206164647265737391019081526000611743565b6020808252810161043681611b49565b601c81526000602082017f4552433732313a20746f6b656e20616c7265616479206d696e7465640000000081529150611743565b6020808252810161043681611b8b565b603281526000602082017f4552433732313a207472616e7366657220746f206e6f6e20455243373231526581527131b2b4bb32b91034b6b83632b6b2b73a32b960711b60208201529150611638565b6020808252810161043681611bcf565b60808101611c3c82876112a8565b611c4960208301866112a8565b611c566040830185611360565b8181036060830152611c688184611222565b9695505050505050565b8051610436816111a3565b600060208284031215611c9257611c92600080fd5b6000610bbc8484611c7256fea264697066735822122093ca83517da7814aa4970a0b09cf92cbff3f79415e4159abae1ec4c4573dc3d864736f6c63430008110033",
  "linkReferences": {},
  "deployedLinkReferences": {}
}