{
  "_format": "hh-sol-artifact-1",
  "contractName": "Zenith",
  "sourceName": "contracts/Zenith.sol",
  "abi": [
    {
      "anonymous": false,
      "inputs": [
        {
          "indexed": true,
          "internalType": "address",
          "name": "owner",
          "type": "address"
        },
        {
          "indexed": true,
          "internalType": "address",
          "name": "approved",
          "type": "address"
        },
        {
          "indexed": true,
          "internalType": "uint256",
          "name": "tokenId",
          "type": "uint256"
        }
      ],
      "name": "Approval",
      "type": "event"
    },
    {
      "anonymous": false,
      "inputs": [
        {
          "indexed": true,
          "internalType": "address",
          "name": "owner",
          "type": "address"
        },
        {
          "indexed": true,
          "internalType": "address",
          "name": "operator",
          "type": "address"
        },
        {
          "indexed": false,
          "internalType": "bool",
          "name": "approved",
          "type": "bool"
        }
      ],
      "name": "ApprovalForAll",
      "type": "event"
    },
    {
      "anonymous": false,
      "inputs": [
        {
          "indexed": false,
          "internalType": "string",
          "name": "id",
          "type": "string"
        }
      ],
      "name": "ArticlePublished",
      "type": "event"
    },
    {
      "anonymous": false,
      "inputs": [
        {
          "indexed": true,
          "internalType": "address",
          "name": "previousOwner",
          "type": "address"
        },
        {
          "indexed": true,
          "internalType": "address",
          "name": "newOwner",
          "type": "address"
        }
      ],
      "name": "OwnershipTransferred",
      "type": "event"
    },
    {
      "anonymous": false,
      "inputs": [
        {
          "indexed": false,
          "internalType": "address",
          "name": "reviewer",
          "type": "address"
        },
        {
          "indexed": false,
          "internalType": "uint256",
          "name": "rep",
          "type": "uint256"
        }
      ],
      "name": "ReviewerAdded",
      "type": "event"
    },
    {
      "anonymous": false,
      "inputs": [
        {
          "indexed": false,
          "internalType": "address",
          "name": "reviewer",
          "type": "address"
        },
        {
          "indexed": false,
          "internalType": "uint256",
          "name": "oldRep",
          "type": "uint256"
        },
        {
          "indexed": false,
          "internalType": "uint256",
          "name": "newRep",
          "type": "uint256"
        }
      ],
      "name": "ReviewerReputationUpdated",
      "type": "event"
    },
    {
      "anonymous": false,
      "inputs": [
        {
          "indexed": true,
          "internalType": "address",
          "name": "from",
          "type": "address"
        },
        {
          "indexed": true,
          "internalType": "address",
          "name": "to",
          "type": "address"
        },
        {
          "indexed": true,
          "internalType": "uint256",
          "name": "tokenId",
          "type": "uint256"
        }
      ],
      "name": "Transfer",
      "type": "event"
    },
    {
      "inputs": [
        {
          "internalType": "uint256",
          "name": "tokenId",
          "type": "uint256"
        },
        {
          "internalType": "string",
          "name": "_payloadCID",
          "type": "string"
        },
        {
          "internalType": "address",
          "name": "author",
          "type": "address"
        }
      ],
      "name": "addArticle",
      "outputs": [],
      "stateMutability": "nonpayable",
      "type": "function"
    },
    {
      "inputs": [
        {
          "internalType": "address",
          "name": "_reviewer",
          "type": "address"
        }
      ],
      "name": "addReviewer",
      "outputs": [],
      "stateMutability": "nonpayable",
      "type": "function"
    },
    {
      "inputs": [
        {
          "internalType": "address",
          "name": "to",
          "type": "address"
        },
        {
          "internalType": "uint256",
          "name": "tokenId",
          "type": "uint256"
        }
      ],
      "name": "approve",
      "outputs": [],
      "stateMutability": "nonpayable",
      "type": "function"
    },
    {
      "inputs": [
        {
          "internalType": "address",
          "name": "owner",
          "type": "address"
        }
      ],
      "name": "balanceOf",
      "outputs": [
        {
          "internalType": "uint256",
          "name": "",
          "type": "uint256"
        }
      ],
      "stateMutability": "view",
      "type": "function"
    },
    {
      "inputs": [],
      "name": "downStep",
      "outputs": [
        {
          "internalType": "uint256",
          "name": "",
          "type": "uint256"
        }
      ],
      "stateMutability": "view",
      "type": "function"
    },
    {
      "inputs": [
        {
          "internalType": "uint256",
          "name": "tokenId",
          "type": "uint256"
        }
      ],
      "name": "getApproved",
      "outputs": [
        {
          "internalType": "address",
          "name": "",
          "type": "address"
        }
      ],
      "stateMutability": "view",
      "type": "function"
    },
    {
      "inputs": [
        {
          "internalType": "uint256",
          "name": "_tokenID",
          "type": "uint256"
        }
      ],
      "name": "getPayloadCID",
      "outputs": [
        {
          "internalType": "string",
          "name": "",
          "type": "string"
        }
      ],
      "stateMutability": "view",
      "type": "function"
    },
    {
      "inputs": [
        {
          "internalType": "address",
          "name": "reviewer",
          "type": "address"
        }
      ],
      "name": "getReviewerReputation",
      "outputs": [
        {
          "internalType": "uint256",
          "name": "",
          "type": "uint256"
        }
      ],
      "stateMutability": "view",
      "type": "function"
    },
    {
      "inputs": [],
      "name": "initialRep",
      "outputs": [
        {
          "internalType": "uint256",
          "name": "",
          "type": "uint256"
        }
      ],
      "stateMutability": "view",
      "type": "function"
    },
    {
      "inputs": [
        {
          "internalType": "address",
          "name": "owner",
          "type": "address"
        },
        {
          "internalType": "address",
          "name": "operator",
          "type": "address"
        }
      ],
      "name": "isApprovedForAll",
      "outputs": [
        {
          "internalType": "bool",
          "name": "",
          "type": "bool"
        }
      ],
      "stateMutability": "view",
      "type": "function"
    },
    {
      "inputs": [],
      "name": "maxRep",
      "outputs": [
        {
          "internalType": "uint256",
          "name": "",
          "type": "uint256"
        }
      ],
      "stateMutability": "view",
      "type": "function"
    },
    {
      "inputs": [],
      "name": "minRep",
      "outputs": [
        {
          "internalType": "uint256",
          "name": "",
          "type": "uint256"
        }
      ],
      "stateMutability": "view",
      "type": "function"
    },
    {
      "inputs": [],
      "name": "name",
      "outputs": [
        {
          "internalType": "string",
          "name": "",
          "type": "string"
        }
      ],
      "stateMutability": "view",
      "type": "function"
    },
    {
      "inputs": [],
      "name": "owner",
      "outputs": [
        {
          "internalType": "address",
          "name": "",
          "type": "address"
        }
      ],
      "stateMutability": "view",
      "type": "function"
    },
    {
      "inputs": [
        {
          "internalType": "uint256",
          "name": "tokenId",
          "type": "uint256"
        }
      ],
      "name": "ownerOf",
      "outputs": [
        {
          "internalType": "address",
          "name": "",
          "type": "address"
        }
      ],
      "stateMutability": "view",
      "type": "function"
    },
    {
      "inputs": [
        {
          "internalType": "uint256",
          "name": "",
          "type": "uint256"
        }
      ],
      "name": "payloadCID",
      "outputs": [
        {
          "internalType": "string",
          "name": "",
          "type": "string"
        }
      ],
      "stateMutability": "view",
      "type": "function"
    },
    {
      "inputs": [],
      "name": "renounceOwnership",
      "outputs": [],
      "stateMutability": "nonpayable",
      "type": "function"
    },
    {
      "inputs": [
        {
          "internalType": "address",
          "name": "",
          "type": "address"
        }
      ],
      "name": "reputation",
      "outputs": [
        {
          "internalType": "uint256",
          "name": "",
          "type": "uint256"
        }
      ],
      "stateMutability": "view",
      "type": "function"
    },
    {
      "inputs": [
        {
          "internalType": "address",
          "name": "from",
          "type": "address"
        },
        {
          "internalType": "address",
          "name": "to",
          "type": "address"
        },
        {
          "internalType": "uint256",
          "name": "tokenId",
          "type": "uint256"
        }
      ],
      "name": "safeTransferFrom",
      "outputs": [],
      "stateMutability": "nonpayable",
      "type": "function"
    },
    {
      "inputs": [
        {
          "internalType": "address",
          "name": "from",
          "type": "address"
        },
        {
          "internalType": "address",
          "name": "to",
          "type": "address"
        },
        {
          "internalType": "uint256",
          "name": "tokenId",
          "type": "uint256"
        },
        {
          "internalType": "bytes",
          "name": "data",
          "type": "bytes"
        }
      ],
      "name": "safeTransferFrom",
      "outputs": [],
      "stateMutability": "nonpayable",
      "type": "function"
    },
    {
      "inputs": [
        {
          "internalType": "address",
          "name": "operator",
          "type": "address"
        },
        {
          "internalType": "bool",
          "name": "approved",
          "type": "bool"
        }
      ],
      "name": "setApprovalForAll",
      "outputs": [],
      "stateMutability": "nonpayable",
      "type": "function"
    },
    {
      "inputs": [
        {
          "internalType": "bytes4",
          "name": "interfaceId",
          "type": "bytes4"
        }
      ],
      "name": "supportsInterface",
      "outputs": [
        {
          "internalType": "bool",
          "name": "",
          "type": "bool"
        }
      ],
      "stateMutability": "view",
      "type": "function"
    },
    {
      "inputs": [],
      "name": "symbol",
      "outputs": [
        {
          "internalType": "string",
          "name": "",
          "type": "string"
        }
      ],
      "stateMutability": "view",
      "type": "function"
    },
    {
      "inputs": [
        {
          "internalType": "uint256",
          "name": "tokenId",
          "type": "uint256"
        }
      ],
      "name": "tokenURI",
      "outputs": [
        {
          "internalType": "string",
          "name": "",
          "type": "string"
        }
      ],
      "stateMutability": "view",
      "type": "function"
    },
    {
      "inputs": [
        {
          "internalType": "address",
          "name": "from",
          "type": "address"
        },
        {
          "internalType": "address",
          "name": "to",
          "type": "address"
        },
        {
          "internalType": "uint256",
          "name": "tokenId",
          "type": "uint256"
        }
      ],
      "name": "transferFrom",
      "outputs": [],
      "stateMutability": "nonpayable",
      "type": "function"
    },
    {
      "inputs": [
        {
          "internalType": "address",
          "name": "newOwner",
          "type": "address"
        }
      ],
      "name": "transferOwnership",
      "outputs": [],
      "stateMutability": "nonpayable",
      "type": "function"
    },
    {
      "inputs": [],
      "name": "upStep",
      "outputs": [
        {
          "internalType": "uint256",
          "name": "",
          "type": "uint256"
        }
      ],
      "stateMutability": "view",
      "type": "function"
    },
    {
      "inputs": [
        {
          "internalType": "address",
          "name": "_reviewer",
          "type": "address"
        },
        {
          "internalType": "bool",
          "name": "action",
          "type": "bool"
        }
      ],
      "name": "updateReviewerReputation",
      "outputs": [],
      "stateMutability": "nonpayable",
      "type": "function"
    }
  ],
  "bytecode": "0x60806040526101f4600755600a60085560056009556103e8600a556001600b553480156200002c57600080fd5b50604051806040016040528060068152602001650b4cadcd2e8d60d31b815250604051806040016040528060038152602001622d32b760e91b815250620000826200007c620000a860201b60201c565b620000ac565b600162000090838262000215565b5060026200009f828262000215565b505050620002e5565b3390565b600080546001600160a01b038381166001600160a01b0319831681178455604051919092169283917f8be0079c531659141344cd1fd0a4f28419497f9722a3daafe3b4186f6b6457e09190a35050565b634e487b7160e01b600052604160045260246000fd5b634e487b7160e01b600052602260045260246000fd5b6002810460018216806200013d57607f821691505b60208210810362000152576200015262000112565b50919050565b600062000169620001668381565b90565b92915050565b6200017a8362000158565b81546008840282811b60001990911b908116901990911617825550505050565b6000620001a98184846200016f565b505050565b81811015620001cd57620001c46000826200019a565b600101620001ae565b5050565b601f821115620001a9576000818152602090206020601f85010481016020851015620001fa5750805b6200020e6020601f860104830182620001ae565b5050505050565b81516001600160401b03811115620002315762000231620000fc565b6200023d825462000128565b6200024a828285620001d1565b6020601f831160018114620002815760008415620002685750858201515b600019600886021c1981166002860217865550620002dd565b600085815260208120601f198616915b82811015620002b3578885015182556020948501946001909201910162000291565b86831015620002d05784890151600019601f89166008021c191682555b6001600288020188555050505b505050505050565b611cdd80620002f56000396000f3fe608060405234801561001057600080fd5b50600436106101c45760003560e01c80638da5cb5b116100f9578063c87b56dd11610097578063d832764711610071578063d832764714610392578063e478c76d1461039b578063e985e9c5146103c4578063f2fde38b146103d757600080fd5b8063c87b56dd14610363578063c99e5c2c14610376578063d5942a9a1461037f57600080fd5b8063b88d4fde116100d3578063b88d4fde1461030a578063b929a12b1461031d578063b9f7945114610330578063c355c3b41461035057600080fd5b80638da5cb5b146102de57806395d89b41146102ef578063a22cb465146102f757600080fd5b80636352211e1161016657806373a82b5f1161014057806373a82b5f146102a65780637b04bdb9146102b9578063822e12c8146102cc57806382a6587a146102d557600080fd5b80636352211e1461027857806370a082311461028b578063715018a61461029e57600080fd5b8063095ea7b3116101a2578063095ea7b31461022757806323b872dd1461023c57806342842e0e1461024f57806363039be81461026257600080fd5b806301ffc9a7146101c957806306fdde03146101f2578063081812fc14610207575b600080fd5b6101dc6101d73660046111a9565b6103ea565b6040516101e991906111d4565b60405180910390f35b6101fa61043c565b6040516101e99190611238565b61021a61021536600461125a565b6104ce565b6040516101e99190611295565b61023a6102353660046112b7565b6104f5565b005b61023a61024a3660046112f4565b610583565b61023a61025d3660046112f4565b6105b4565b61026b600a5481565b6040516101e9919061134a565b61021a61028636600461125a565b6105cf565b61026b610299366004611358565b610604565b61023a610648565b61023a6102b4366004611358565b61065c565b61023a6102c736600461146c565b6106be565b61026b60095481565b61026b600b5481565b6000546001600160a01b031661021a565b6101fa610725565b61023a6103053660046114e0565b610734565b61023a610318366004611513565b610743565b61023a61032b3660046114e0565b61077b565b61026b61033e366004611358565b600c6020526000908152604090205481565b6101fa61035e36600461125a565b61088f565b6101fa61037136600461125a565b610931565b61026b60075481565b6101fa61038d36600461125a565b6109a5565b61026b60085481565b61026b6103a9366004611358565b6001600160a01b03166000908152600c602052604090205490565b6101dc6103d2366004611592565b610a3f565b61023a6103e5366004611358565b610a6d565b60006001600160e01b031982166380ac58cd60e01b148061041b57506001600160e01b03198216635b5e139f60e01b145b8061043657506301ffc9a760e01b6001600160e01b03198316145b92915050565b60606001805461044b906115db565b80601f0160208091040260200160405190810160405280929190818152602001828054610477906115db565b80156104c45780601f10610499576101008083540402835291602001916104c4565b820191906000526020600020905b8154815290600101906020018083116104a757829003601f168201915b5050505050905090565b60006104d982610aa7565b506000908152600560205260409020546001600160a01b031690565b6000610500826105cf565b9050806001600160a01b0316836001600160a01b03160361053c5760405162461bcd60e51b815260040161053390611648565b60405180910390fd5b336001600160a01b038216148061055857506105588133610a3f565b6105745760405162461bcd60e51b8152600401610533906116b2565b61057e8383610adb565b505050565b61058d3382610b49565b6105a95760405162461bcd60e51b81526004016105339061170c565b61057e838383610ba8565b61057e83838360405180602001604052806000815250610743565b6000818152600360205260408120546001600160a01b0316806104365760405162461bcd60e51b815260040161053390611753565b60006001600160a01b03821661062c5760405162461bcd60e51b8152600401610533906117a9565b506001600160a01b031660009081526004602052604090205490565b610650610cd0565b61065a6000610cfa565b565b610664610cd0565b6007546001600160a01b0382166000908152600c602052604090819020829055517f792fba7bf3ae9b43c084194769afb90d1ed39f7246c607da236433b394b8137f916106b3918491906117b9565b60405180910390a150565b6106c6610cd0565b6000838152600d602052604090206106de8382611874565b506106e98184610d4a565b7f8f3789acf1404606423adb83ed1d79a854fa76e2fcb740a8f5e35ebf15b11229826040516107189190611238565b60405180910390a1505050565b60606002805461044b906115db565b61073f338383610e45565b5050565b61074d3383610b49565b6107695760405162461bcd60e51b81526004016105339061170c565b61077584848484610ee7565b50505050565b610783610cd0565b6001600160a01b0382166000908152600c602052604090205481156107f5576008546107af908261194e565b6001600160a01b0384166000908152600c60205260409020819055600a5410156107f057600a546001600160a01b0384166000908152600c60205260409020555b610843565b6009546108029082611961565b6001600160a01b0384166000908152600c60205260409020819055600b54111561084357600b546001600160a01b0384166000908152600c60205260409020555b6001600160a01b0383166000908152600c6020526040908190205490517f17d2f6beed389d05e3e0e32a376d4e79ddf382cf86d428f2fda4b36810619b05916107189186918591611974565b6000818152600d602052604090208054606091906108ac906115db565b80601f01602080910402602001604051908101604052809291908181526020018280546108d8906115db565b80156109255780601f106108fa57610100808354040283529160200191610925565b820191906000526020600020905b81548152906001019060200180831161090857829003601f168201915b50505050509050919050565b606061093c82610aa7565b600061095360408051602081019091526000815290565b90506000815111610973576040518060200160405280600081525061099e565b8061097d84610f1a565b60405160200161098e9291906119be565b6040516020818303038152906040525b9392505050565b600d60205260009081526040902080546109be906115db565b80601f01602080910402602001604051908101604052809291908181526020018280546109ea906115db565b8015610a375780601f10610a0c57610100808354040283529160200191610a37565b820191906000526020600020905b815481529060010190602001808311610a1a57829003601f168201915b505050505081565b6001600160a01b03918216600090815260066020908152604080832093909416825291909152205460ff1690565b610a75610cd0565b6001600160a01b038116610a9b5760405162461bcd60e51b815260040161053390611a19565b610aa481610cfa565b50565b6000818152600360205260409020546001600160a01b0316610aa45760405162461bcd60e51b815260040161053390611753565b600081815260056020526040902080546001600160a01b0319166001600160a01b0384169081179091558190610b10826105cf565b6001600160a01b03167f8c5be1e5ebec7d5bd14f71427d1e84f3dd0314c0f7b2291e5b200ac8c7c3b92560405160405180910390a45050565b600080610b55836105cf565b9050806001600160a01b0316846001600160a01b03161480610b7c5750610b7c8185610a3f565b80610ba05750836001600160a01b0316610b95846104ce565b6001600160a01b0316145b949350505050565b826001600160a01b0316610bbb826105cf565b6001600160a01b031614610be15760405162461bcd60e51b815260040161053390611a6b565b6001600160a01b038216610c075760405162461bcd60e51b815260040161053390611abc565b826001600160a01b0316610c1a826105cf565b6001600160a01b031614610c405760405162461bcd60e51b815260040161053390611a6b565b600081815260056020908152604080832080546001600160a01b03199081169091556001600160a01b0387811680865260048552838620805460001901905590871680865283862080546001019055868652600390945282852080549092168417909155905184937fddf252ad1be2c89b69c2b068fc378daa952ba7f163c4a11628f55a4df523b3ef91a4505050565b6000546001600160a01b0316331461065a5760405162461bcd60e51b815260040161053390611afe565b600080546001600160a01b038381166001600160a01b0319831681178455604051919092169283917f8be0079c531659141344cd1fd0a4f28419497f9722a3daafe3b4186f6b6457e09190a35050565b6001600160a01b038216610d705760405162461bcd60e51b815260040161053390611b40565b6000818152600360205260409020546001600160a01b031615610da55760405162461bcd60e51b815260040161053390611b84565b6000818152600360205260409020546001600160a01b031615610dda5760405162461bcd60e51b815260040161053390611b84565b6001600160a01b038216600081815260046020908152604080832080546001019055848352600390915280822080546001600160a01b0319168417905551839291907fddf252ad1be2c89b69c2b068fc378daa952ba7f163c4a11628f55a4df523b3ef908290a45050565b816001600160a01b0316836001600160a01b031603610e765760405162461bcd60e51b815260040161053390611bc8565b6001600160a01b0383811660008181526006602090815260408083209487168084529490915290819020805460ff1916851515179055517f17307eab39ab6107e8899845ad3d59bd9653f200f220920489ca2b5937696c3190610eda9085906111d4565b60405180910390a3505050565b610ef2848484610ba8565b610efe84848484610fae565b6107755760405162461bcd60e51b815260040161053390611c27565b60606000610f27836110af565b600101905060008167ffffffffffffffff811115610f4757610f47611379565b6040519080825280601f01601f191660200182016040528015610f71576020820181803683370190505b5090508181016020015b600019016f181899199a1a9b1b9c1cb0b131b232b360811b600a86061a8153600a8504945084610f7b575b509392505050565b60006001600160a01b0384163b156110a457604051630a85bd0160e11b81526001600160a01b0385169063150b7a0290610ff2903390899088908890600401611c37565b6020604051808303816000875af192505050801561102d575060408051601f3d908101601f1916820190925261102a91810190611c86565b60015b61108a573d80801561105b576040519150601f19603f3d011682016040523d82523d6000602084013e611060565b606091505b5080516000036110825760405162461bcd60e51b815260040161053390611c27565b805181602001fd5b6001600160e01b031916630a85bd0160e11b149050610ba0565b506001949350505050565b60008072184f03e93ff9f4daa797ed6e38ed64bf6a1f0160401b83106110ee5772184f03e93ff9f4daa797ed6e38ed64bf6a1f0160401b830492506040015b6d04ee2d6d415b85acef8100000000831061111a576d04ee2d6d415b85acef8100000000830492506020015b662386f26fc10000831061113857662386f26fc10000830492506010015b6305f5e1008310611150576305f5e100830492506008015b612710831061116457612710830492506004015b60648310611176576064830492506002015b600a83106104365760010192915050565b6001600160e01b031981165b8114610aa457600080fd5b803561043681611187565b6000602082840312156111be576111be600080fd5b6000610ba0848461119e565b8015155b82525050565b6020810161043682846111ca565b60005b838110156111fd5781810151838201526020016111e5565b50506000910152565b6000611210825190565b8084526020840193506112278185602086016111e2565b601f01601f19169290920192915050565b6020808252810161099e8184611206565b80611193565b803561043681611249565b60006020828403121561126f5761126f600080fd5b6000610ba0848461124f565b60006001600160a01b038216610436565b6111ce8161127b565b60208101610436828461128c565b6111938161127b565b8035610436816112a3565b600080604083850312156112cd576112cd600080fd5b60006112d985856112ac565b92505060206112ea8582860161124f565b9150509250929050565b60008060006060848603121561130c5761130c600080fd5b600061131886866112ac565b9350506020611329868287016112ac565b925050604061133a8682870161124f565b9150509250925092565b806111ce565b602081016104368284611344565b60006020828403121561136d5761136d600080fd5b6000610ba084846112ac565b634e487b7160e01b600052604160045260246000fd5b601f19601f830116810181811067ffffffffffffffff821117156113b5576113b5611379565b6040525050565b60006113c760405190565b90506113d3828261138f565b919050565b600067ffffffffffffffff8211156113f2576113f2611379565b601f19601f83011660200192915050565b82818337506000910152565b600061142261141d846113d8565b6113bc565b90508281526020810184848401111561143d5761143d600080fd5b610fa6848285611403565b600082601f83011261145c5761145c600080fd5b8135610ba084826020860161140f565b60008060006060848603121561148457611484600080fd5b6000611490868661124f565b935050602084013567ffffffffffffffff8111156114b0576114b0600080fd5b6114bc86828701611448565b925050604061133a868287016112ac565b801515611193565b8035610436816114cd565b600080604083850312156114f6576114f6600080fd5b600061150285856112ac565b92505060206112ea858286016114d5565b6000806000806080858703121561152c5761152c600080fd5b600061153887876112ac565b9450506020611549878288016112ac565b935050604061155a8782880161124f565b925050606085013567ffffffffffffffff81111561157a5761157a600080fd5b61158687828801611448565b91505092959194509250565b600080604083850312156115a8576115a8600080fd5b60006115b485856112ac565b92505060206112ea858286016112ac565b634e487b7160e01b600052602260045260246000fd5b6002810460018216806115ef57607f821691505b602082108103611601576116016115c5565b50919050565b602181526000602082017f4552433732313a20617070726f76616c20746f2063757272656e74206f776e658152603960f91b602082015291505b5060400190565b6020808252810161043681611607565b603d81526000602082017f4552433732313a20617070726f76652063616c6c6572206973206e6f7420746f81527f6b656e206f776e6572206f7220617070726f76656420666f7220616c6c00000060208201529150611641565b6020808252810161043681611658565b602d81526000602082017f4552433732313a2063616c6c6572206973206e6f7420746f6b656e206f776e6581526c1c881bdc88185c1c1c9bdd9959609a1b60208201529150611641565b60208082528101610436816116c2565b601881526000602082017f4552433732313a20696e76616c696420746f6b656e2049440000000000000000815291505b5060200190565b602080825281016104368161171c565b602981526000602082017f4552433732313a2061646472657373207a65726f206973206e6f7420612076618152683634b21037bbb732b960b91b60208201529150611641565b6020808252810161043681611763565b604081016117c7828561128c565b61099e6020830184611344565b60006104366117e08381565b90565b6117ec836117d4565b81546008840282811b60001990911b908116901990911617825550505050565b600061057e8184846117e3565b8181101561073f5761182c60008261180c565b600101611819565b601f82111561057e576000818152602090206020601f8501048101602085101561185b5750805b61186d6020601f860104830182611819565b5050505050565b815167ffffffffffffffff81111561188e5761188e611379565b61189882546115db565b6118a3828285611834565b6020601f8311600181146118d757600084156118bf5750858201515b600019600886021c1981166002860217865550611930565b600085815260208120601f198616915b8281101561190757888501518255602094850194600190920191016118e7565b868310156119235784890151600019601f89166008021c191682555b6001600288020188555050505b505050505050565b634e487b7160e01b600052601160045260246000fd5b8082018082111561043657610436611938565b8181038181111561043657610436611938565b60608101611982828661128c565b61198f6020830185611344565b610ba06040830184611344565b60006119a6825190565b6119b48185602086016111e2565b9290920192915050565b60006119ca828561199c565b9150610ba0828461199c565b602681526000602082017f4f776e61626c653a206e6577206f776e657220697320746865207a65726f206181526564647265737360d01b60208201529150611641565b60208082528101610436816119d6565b602581526000602082017f4552433732313a207472616e736665722066726f6d20696e636f72726563742081526437bbb732b960d91b60208201529150611641565b6020808252810161043681611a29565b602481526000602082017f4552433732313a207472616e7366657220746f20746865207a65726f206164648152637265737360e01b60208201529150611641565b6020808252810161043681611a7b565b60208082527f4f776e61626c653a2063616c6c6572206973206e6f7420746865206f776e65729101908152600061174c565b6020808252810161043681611acc565b60208082527f4552433732313a206d696e7420746f20746865207a65726f20616464726573739101908152600061174c565b6020808252810161043681611b0e565b601c81526000602082017f4552433732313a20746f6b656e20616c7265616479206d696e746564000000008152915061174c565b6020808252810161043681611b50565b601981526000602082017f4552433732313a20617070726f766520746f2063616c6c6572000000000000008152915061174c565b6020808252810161043681611b94565b603281526000602082017f4552433732313a207472616e7366657220746f206e6f6e20455243373231526581527131b2b4bb32b91034b6b83632b6b2b73a32b960711b60208201529150611641565b6020808252810161043681611bd8565b60808101611c45828761128c565b611c52602083018661128c565b611c5f6040830185611344565b8181036060830152611c718184611206565b9695505050505050565b805161043681611187565b600060208284031215611c9b57611c9b600080fd5b6000610ba08484611c7b56fea264697066735822122004356f254614241ca37358cf2eb95ba0e26b2aa80a1572fddc7c50491000129864736f6c63430008110033",
  "linkReferences": {},
  "deployedLinkReferences": {}
}