{
  "_format": "hh-sol-artifact-1",
  "contractName": "Zenith",
  "sourceName": "contracts/Zenith.sol",
  "abi": [
    {
      "anonymous": false,
      "inputs": [
        {
          "indexed": false,
          "internalType": "string",
          "name": "id",
          "type": "string"
        }
      ],
      "name": "ArticlePublished",
      "type": "event"
    },
    {
      "anonymous": false,
      "inputs": [
        {
          "indexed": true,
          "internalType": "address",
          "name": "previousOwner",
          "type": "address"
        },
        {
          "indexed": true,
          "internalType": "address",
          "name": "newOwner",
          "type": "address"
        }
      ],
      "name": "OwnershipTransferred",
      "type": "event"
    },
    {
      "anonymous": false,
      "inputs": [
        {
          "indexed": false,
          "internalType": "address",
          "name": "reviewer",
          "type": "address"
        },
        {
          "indexed": false,
          "internalType": "uint256",
          "name": "rep",
          "type": "uint256"
        }
      ],
      "name": "ReviewerAdded",
      "type": "event"
    },
    {
      "anonymous": false,
      "inputs": [
        {
          "indexed": false,
          "internalType": "address",
          "name": "reviewer",
          "type": "address"
        },
        {
          "indexed": false,
          "internalType": "uint256",
          "name": "oldRep",
          "type": "uint256"
        },
        {
          "indexed": false,
          "internalType": "uint256",
          "name": "newRep",
          "type": "uint256"
        }
      ],
      "name": "ReviewerReputationUpdated",
      "type": "event"
    },
    {
      "inputs": [
        {
          "internalType": "string",
          "name": "_id",
          "type": "string"
        }
      ],
      "name": "addArticle",
      "outputs": [],
      "stateMutability": "nonpayable",
      "type": "function"
    },
    {
      "inputs": [
        {
          "internalType": "address",
          "name": "_reviewer",
          "type": "address"
        }
      ],
      "name": "addReviewer",
      "outputs": [],
      "stateMutability": "nonpayable",
      "type": "function"
    },
    {
      "inputs": [],
      "name": "downStep",
      "outputs": [
        {
          "internalType": "uint256",
          "name": "",
          "type": "uint256"
        }
      ],
      "stateMutability": "view",
      "type": "function"
    },
    {
      "inputs": [
        {
          "internalType": "address",
          "name": "reviewer",
          "type": "address"
        }
      ],
      "name": "getReviewerReputation",
      "outputs": [
        {
          "internalType": "uint256",
          "name": "",
          "type": "uint256"
        }
      ],
      "stateMutability": "view",
      "type": "function"
    },
    {
      "inputs": [],
      "name": "initialRep",
      "outputs": [
        {
          "internalType": "uint256",
          "name": "",
          "type": "uint256"
        }
      ],
      "stateMutability": "view",
      "type": "function"
    },
    {
      "inputs": [
        {
          "internalType": "string",
          "name": "_id",
          "type": "string"
        }
      ],
      "name": "isArticlePublished",
      "outputs": [
        {
          "internalType": "bool",
          "name": "",
          "type": "bool"
        }
      ],
      "stateMutability": "view",
      "type": "function"
    },
    {
      "inputs": [
        {
          "internalType": "string",
          "name": "",
          "type": "string"
        }
      ],
      "name": "isPublished",
      "outputs": [
        {
          "internalType": "bool",
          "name": "",
          "type": "bool"
        }
      ],
      "stateMutability": "view",
      "type": "function"
    },
    {
      "inputs": [],
      "name": "maxRep",
      "outputs": [
        {
          "internalType": "uint256",
          "name": "",
          "type": "uint256"
        }
      ],
      "stateMutability": "view",
      "type": "function"
    },
    {
      "inputs": [],
      "name": "minRep",
      "outputs": [
        {
          "internalType": "uint256",
          "name": "",
          "type": "uint256"
        }
      ],
      "stateMutability": "view",
      "type": "function"
    },
    {
      "inputs": [],
      "name": "owner",
      "outputs": [
        {
          "internalType": "address",
          "name": "",
          "type": "address"
        }
      ],
      "stateMutability": "view",
      "type": "function"
    },
    {
      "inputs": [],
      "name": "renounceOwnership",
      "outputs": [],
      "stateMutability": "nonpayable",
      "type": "function"
    },
    {
      "inputs": [
        {
          "internalType": "address",
          "name": "",
          "type": "address"
        }
      ],
      "name": "reputation",
      "outputs": [
        {
          "internalType": "uint256",
          "name": "",
          "type": "uint256"
        }
      ],
      "stateMutability": "view",
      "type": "function"
    },
    {
      "inputs": [
        {
          "internalType": "address",
          "name": "newOwner",
          "type": "address"
        }
      ],
      "name": "transferOwnership",
      "outputs": [],
      "stateMutability": "nonpayable",
      "type": "function"
    },
    {
      "inputs": [],
      "name": "upStep",
      "outputs": [
        {
          "internalType": "uint256",
          "name": "",
          "type": "uint256"
        }
      ],
      "stateMutability": "view",
      "type": "function"
    },
    {
      "inputs": [
        {
          "internalType": "address",
          "name": "_reviewer",
          "type": "address"
        },
        {
          "internalType": "bool",
          "name": "action",
          "type": "bool"
        }
      ],
      "name": "updateReviewerReputation",
      "outputs": [],
      "stateMutability": "nonpayable",
      "type": "function"
    }
  ],
  "bytecode": "0x60806040526101f4600155600a60025560056003556103e8600455600160055534801561002b57600080fd5b506100353361003a565b61008a565b600080546001600160a01b038381166001600160a01b0319831681178455604051919092169283917f8be0079c531659141344cd1fd0a4f28419497f9722a3daafe3b4186f6b6457e09190a35050565b610927806100996000396000f3fe608060405234801561001057600080fd5b50600436106100f55760003560e01c80638da5cb5b11610097578063c99e5c2c11610066578063c99e5c2c146101f5578063d8327647146101fe578063e478c76d14610207578063f2fde38b1461023057600080fd5b80638da5cb5b1461017b578063b929a12b14610194578063b9f79451146101a7578063c7ebd41c146101c757600080fd5b806373a82b5f116100d357806373a82b5f1461013657806377f5177d14610149578063822e12c81461016957806382a6587a1461017257600080fd5b80630c971a46146100fa57806363039be81461010f578063715018a61461012e575b600080fd5b61010d61010836600461062d565b610243565b005b61011860045481565b6040516101259190610670565b60405180910390f35b61010d6102b6565b61010d6101443660046106b4565b6102ca565b61015c61015736600461062d565b610321565b60405161012591906106dd565b61011860035481565b61011860055481565b6000546001600160a01b031660405161012591906106f4565b61010d6101a2366004610715565b61034c565b6101186101b53660046106b4565b60066020526000908152604090205481565b61015c6101d536600461062d565b805160208183018101805160078252928201919093012091525460ff1681565b61011860015481565b61011860025481565b6101186102153660046106b4565b6001600160a01b031660009081526006602052604090205490565b61010d61023e3660046106b4565b61046d565b61024b6104b0565b600160078260405161025d9190610798565b908152604051908190036020018120805492151560ff19909316929092179091557f8f3789acf1404606423adb83ed1d79a854fa76e2fcb740a8f5e35ebf15b11229906102ab9083906107dd565b60405180910390a150565b6102be6104b0565b6102c860006104da565b565b6102d26104b0565b6001546001600160a01b03821660009081526006602052604090819020829055517f792fba7bf3ae9b43c084194769afb90d1ed39f7246c607da236433b394b8137f916102ab918491906107ee565b60006007826040516103339190610798565b9081526040519081900360200190205460ff1692915050565b6103546104b0565b6001600160a01b03821660009081526006602052604090205481156103c657600254610380908261081f565b6001600160a01b038416600090815260066020526040902081905560045410156103c1576004546001600160a01b0384166000908152600660205260409020555b610414565b6003546103d39082610832565b6001600160a01b03841660009081526006602052604090208190556005541115610414576005546001600160a01b0384166000908152600660205260409020555b6001600160a01b038316600090815260066020526040908190205490517f17d2f6beed389d05e3e0e32a376d4e79ddf382cf86d428f2fda4b36810619b05916104609186918591610845565b60405180910390a1505050565b6104756104b0565b6001600160a01b0381166104a45760405162461bcd60e51b815260040161049b9061086d565b60405180910390fd5b6104ad816104da565b50565b6000546001600160a01b031633146102c85760405162461bcd60e51b815260040161049b906108b7565b600080546001600160a01b038381166001600160a01b0319831681178455604051919092169283917f8be0079c531659141344cd1fd0a4f28419497f9722a3daafe3b4186f6b6457e09190a35050565b634e487b7160e01b600052604160045260246000fd5b601f19601f830116810181811067ffffffffffffffff821117156105665761056661052a565b6040525050565b600061057860405190565b90506105848282610540565b919050565b600067ffffffffffffffff8211156105a3576105a361052a565b601f19601f83011660200192915050565b82818337506000910152565b60006105d36105ce84610589565b61056d565b9050828152602081018484840111156105ee576105ee600080fd5b6105f98482856105b4565b509392505050565b600082601f83011261061557610615600080fd5b81356106258482602086016105c0565b949350505050565b60006020828403121561064257610642600080fd5b813567ffffffffffffffff81111561065c5761065c600080fd5b61062584828501610601565b805b82525050565b6020810161067e8284610668565b92915050565b60006001600160a01b03821661067e565b61069e81610684565b81146104ad57600080fd5b803561067e81610695565b6000602082840312156106c9576106c9600080fd5b600061062584846106a9565b80151561066a565b6020810161067e82846106d5565b61066a81610684565b6020810161067e82846106eb565b80151561069e565b803561067e81610702565b6000806040838503121561072b5761072b600080fd5b600061073785856106a9565b92505060206107488582860161070a565b9150509250929050565b60005b8381101561076d578181015183820152602001610755565b50506000910152565b6000610780825190565b61078e818560208601610752565b9290920192915050565b60006107a48284610776565b9392505050565b60006107b5825190565b8084526020840193506107cc818560208601610752565b601f01601f19169290920192915050565b602080825281016107a481846107ab565b604081016107fc82856106eb565b6107a46020830184610668565b634e487b7160e01b600052601160045260246000fd5b8082018082111561067e5761067e610809565b8181038181111561067e5761067e610809565b6060810161085382866106eb565b6108606020830185610668565b6106256040830184610668565b6020808252810161067e81602681527f4f776e61626c653a206e6577206f776e657220697320746865207a65726f206160208201526564647265737360d01b604082015260600190565b60208082528181019081527f4f776e61626c653a2063616c6c6572206973206e6f7420746865206f776e657260408301526060820161067e56fea2646970667358221220a051b7a25500969aacfb30af9657240cf94d8dfe43eceaeb7c95558020e44c3c64736f6c63430008110033",
  "linkReferences": {},
  "deployedLinkReferences": {}
}